{
  "contractName": "TimewalkLand",
  "abi": [
    {
      "constant": true,
      "inputs": [
        {
          "name": "_interfaceID",
          "type": "bytes4"
        }
      ],
      "name": "supportsInterface",
      "outputs": [
        {
          "name": "",
          "type": "bool"
        }
      ],
      "payable": false,
      "stateMutability": "view",
      "type": "function"
    },
    {
      "constant": true,
      "inputs": [],
      "name": "name",
      "outputs": [
        {
          "name": "",
          "type": "string"
        }
      ],
      "payable": false,
      "stateMutability": "view",
      "type": "function"
    },
    {
      "constant": false,
      "inputs": [
        {
          "name": "operator",
          "type": "address"
        },
        {
          "name": "assetId",
          "type": "uint256"
        }
      ],
      "name": "approve",
      "outputs": [],
      "payable": false,
      "stateMutability": "nonpayable",
      "type": "function"
    },
    {
      "constant": true,
      "inputs": [],
      "name": "totalSupply",
      "outputs": [
        {
          "name": "",
          "type": "uint256"
        }
      ],
      "payable": false,
      "stateMutability": "view",
      "type": "function"
    },
    {
      "constant": false,
      "inputs": [
        {
          "name": "from",
          "type": "address"
        },
        {
          "name": "to",
          "type": "address"
        },
        {
          "name": "assetId",
          "type": "uint256"
        }
      ],
      "name": "transferFrom",
      "outputs": [],
      "payable": false,
      "stateMutability": "nonpayable",
      "type": "function"
    },
    {
      "constant": true,
      "inputs": [
        {
          "name": "operator",
          "type": "address"
        },
        {
          "name": "assetId",
          "type": "uint256"
        }
      ],
      "name": "isAuthorized",
      "outputs": [
        {
          "name": "",
          "type": "bool"
        }
      ],
      "payable": false,
      "stateMutability": "view",
      "type": "function"
    },
    {
      "constant": true,
      "inputs": [
        {
          "name": "owner",
          "type": "address"
        },
        {
          "name": "index",
          "type": "uint256"
        }
      ],
      "name": "tokenOfOwnerByIndex",
      "outputs": [
        {
          "name": "assetId",
          "type": "uint256"
        }
      ],
      "payable": false,
      "stateMutability": "view",
      "type": "function"
    },
    {
      "constant": true,
      "inputs": [],
      "name": "decimals",
      "outputs": [
        {
          "name": "",
          "type": "uint256"
        }
      ],
      "payable": false,
      "stateMutability": "pure",
      "type": "function"
    },
    {
      "constant": false,
      "inputs": [],
      "name": "withdraw",
      "outputs": [],
      "payable": false,
      "stateMutability": "nonpayable",
      "type": "function"
    },
    {
      "constant": true,
      "inputs": [
        {
          "name": "",
          "type": "uint256"
        }
      ],
      "name": "placeIdLookup",
      "outputs": [
        {
          "name": "",
          "type": "string"
        }
      ],
      "payable": false,
      "stateMutability": "view",
      "type": "function"
    },
    {
      "constant": false,
      "inputs": [
        {
          "name": "from",
          "type": "address"
        },
        {
          "name": "to",
          "type": "address"
        },
        {
          "name": "assetId",
          "type": "uint256"
        }
      ],
      "name": "safeTransferFrom",
      "outputs": [],
      "payable": false,
      "stateMutability": "nonpayable",
      "type": "function"
    },
    {
      "constant": true,
      "inputs": [
        {
          "name": "assetId",
          "type": "uint256"
        }
      ],
      "name": "exists",
      "outputs": [
        {
          "name": "",
          "type": "bool"
        }
      ],
      "payable": false,
      "stateMutability": "view",
      "type": "function"
    },
    {
      "constant": true,
      "inputs": [
        {
          "name": "owner",
          "type": "address"
        }
      ],
      "name": "tokensOf",
      "outputs": [
        {
          "name": "",
          "type": "uint256[]"
        }
      ],
      "payable": false,
      "stateMutability": "view",
      "type": "function"
    },
    {
      "constant": true,
      "inputs": [
        {
          "name": "assetId",
          "type": "uint256"
        }
      ],
      "name": "ownerOf",
      "outputs": [
        {
          "name": "",
          "type": "address"
        }
      ],
      "payable": false,
      "stateMutability": "view",
      "type": "function"
    },
    {
      "constant": true,
      "inputs": [
        {
          "name": "assetId",
          "type": "uint256"
        }
      ],
      "name": "tokenMetadata",
      "outputs": [
        {
          "name": "",
          "type": "string"
        }
      ],
      "payable": false,
      "stateMutability": "view",
      "type": "function"
    },
    {
      "constant": true,
      "inputs": [
        {
          "name": "owner",
          "type": "address"
        }
      ],
      "name": "balanceOf",
      "outputs": [
        {
          "name": "",
          "type": "uint256"
        }
      ],
      "payable": false,
      "stateMutability": "view",
      "type": "function"
    },
    {
      "constant": true,
      "inputs": [
        {
          "name": "_placeData",
          "type": "string"
        }
      ],
      "name": "placeAvailable",
      "outputs": [
        {
          "name": "",
          "type": "bool"
        }
      ],
      "payable": false,
      "stateMutability": "view",
      "type": "function"
    },
    {
      "constant": true,
      "inputs": [],
      "name": "description",
      "outputs": [
        {
          "name": "",
          "type": "string"
        }
      ],
      "payable": false,
      "stateMutability": "view",
      "type": "function"
    },
    {
      "constant": true,
      "inputs": [],
      "name": "owner",
      "outputs": [
        {
          "name": "",
          "type": "address"
        }
      ],
      "payable": false,
      "stateMutability": "view",
      "type": "function"
    },
    {
      "constant": true,
      "inputs": [],
      "name": "symbol",
      "outputs": [
        {
          "name": "",
          "type": "string"
        }
      ],
      "payable": false,
      "stateMutability": "view",
      "type": "function"
    },
    {
      "constant": true,
      "inputs": [],
      "name": "price",
      "outputs": [
        {
          "name": "",
          "type": "uint256"
        }
      ],
      "payable": false,
      "stateMutability": "view",
      "type": "function"
    },
    {
      "constant": false,
      "inputs": [
        {
          "name": "operator",
          "type": "address"
        },
        {
          "name": "authorized",
          "type": "bool"
        }
      ],
      "name": "setApprovalForAll",
      "outputs": [],
      "payable": false,
      "stateMutability": "nonpayable",
      "type": "function"
    },
    {
      "constant": false,
      "inputs": [
        {
          "name": "_newPriceInFinneey",
          "type": "uint256"
        }
      ],
      "name": "setPrices",
      "outputs": [],
      "payable": false,
      "stateMutability": "nonpayable",
      "type": "function"
    },
    {
      "constant": false,
      "inputs": [
        {
          "name": "from",
          "type": "address"
        },
        {
          "name": "to",
          "type": "address"
        },
        {
          "name": "assetId",
          "type": "uint256"
        },
        {
          "name": "userData",
          "type": "bytes"
        }
      ],
      "name": "safeTransferFrom",
      "outputs": [],
      "payable": false,
      "stateMutability": "nonpayable",
      "type": "function"
    },
    {
      "constant": true,
      "inputs": [
        {
          "name": "operator",
          "type": "address"
        },
        {
          "name": "assetHolder",
          "type": "address"
        }
      ],
      "name": "isApprovedForAll",
      "outputs": [
        {
          "name": "",
          "type": "bool"
        }
      ],
      "payable": false,
      "stateMutability": "view",
      "type": "function"
    },
    {
      "constant": true,
      "inputs": [
        {
          "name": "assetId",
          "type": "uint256"
        }
      ],
      "name": "getApprovedAddress",
      "outputs": [
        {
          "name": "",
          "type": "address"
        }
      ],
      "payable": false,
      "stateMutability": "view",
      "type": "function"
    },
    {
      "constant": false,
      "inputs": [
        {
          "name": "newOwner",
          "type": "address"
        }
      ],
      "name": "transferOwnership",
      "outputs": [],
      "payable": false,
      "stateMutability": "nonpayable",
      "type": "function"
    },
    {
      "constant": false,
      "inputs": [
        {
          "name": "_placeData",
          "type": "string"
        }
      ],
      "name": "claim",
      "outputs": [],
      "payable": true,
      "stateMutability": "payable",
      "type": "function"
    },
    {
      "inputs": [],
      "payable": false,
      "stateMutability": "nonpayable",
      "type": "constructor"
    },
    {
      "anonymous": false,
      "inputs": [
        {
          "indexed": true,
          "name": "from",
          "type": "address"
        },
        {
          "indexed": true,
          "name": "to",
          "type": "address"
        },
        {
          "indexed": true,
          "name": "assetId",
          "type": "uint256"
        },
        {
          "indexed": false,
          "name": "operator",
          "type": "address"
        },
        {
          "indexed": false,
          "name": "userData",
          "type": "bytes"
        }
      ],
      "name": "Transfer",
      "type": "event"
    },
    {
      "anonymous": false,
      "inputs": [
        {
          "indexed": true,
          "name": "operator",
          "type": "address"
        },
        {
          "indexed": true,
          "name": "holder",
          "type": "address"
        },
        {
          "indexed": false,
          "name": "authorized",
          "type": "bool"
        }
      ],
      "name": "ApprovalForAll",
      "type": "event"
    },
    {
      "anonymous": false,
      "inputs": [
        {
          "indexed": true,
          "name": "owner",
          "type": "address"
        },
        {
          "indexed": true,
          "name": "operator",
          "type": "address"
        },
        {
          "indexed": true,
          "name": "assetId",
          "type": "uint256"
        }
      ],
      "name": "Approval",
      "type": "event"
    }
  ],
  "bytecode": "0x606060405234156200001057600080fd5b336000806101000a81548173ffffffffffffffffffffffffffffffffffffffff021916908373ffffffffffffffffffffffffffffffffffffffff1602179055506040805190810160405280600c81526020017f54696d6577616c6b4c616e640000000000000000000000000000000000000000815250600190805190602001906200009d92919062000167565b506040805190810160405280600381526020017f54574c000000000000000000000000000000000000000000000000000000000081525060029080519060200190620000eb92919062000167565b50606060405190810160405280602281526020017f46697273742074657374206f662074696d6577616c6b206c616e6420746f6b6581526020017f6e73000000000000000000000000000000000000000000000000000000000000815250600390805190602001906200016092919062000167565b5062000216565b828054600181600116156101000203166002900490600052602060002090601f016020900481019282601f10620001aa57805160ff1916838001178555620001db565b82800160010185558215620001db579182015b82811115620001da578251825591602001919060010190620001bd565b5b509050620001ea9190620001ee565b5090565b6200021391905b808211156200020f576000816000905550600101620001f5565b5090565b90565b61270d80620002266000396000f30060606040526004361061016a576000357c0100000000000000000000000000000000000000000000000000000000900463ffffffff16806301ffc9a71461016f57806306fdde03146101c9578063095ea7b31461025757806318160ddd1461029957806323b872dd146102c25780632972b0f0146103235780632f745c591461037d578063313ce567146103d35780633ccfd60b146103fc578063414bea301461041157806342842e0e146104ad5780634f558e791461050e5780635a3f2672146105495780636352211e146105d75780636914db601461063a57806370a08231146106d657806370cae989146107235780637284e416146107985780638da5cb5b1461082657806395d89b411461087b578063a035b1fe14610909578063a22cb46514610932578063a3201daa14610976578063b88d4fde14610999578063e985e9c514610a3d578063eca4742a14610aad578063f2fde38b14610b10578063f3fe12c914610b49575b600080fd5b341561017a57600080fd5b6101af60048080357bffffffffffffffffffffffffffffffffffffffffffffffffffffffff1916906020019091905050610b9b565b604051808215151515815260200191505060405180910390f35b34156101d457600080fd5b6101dc610c89565b6040518080602001828103825283818151815260200191508051906020019080838360005b8381101561021c578082015181840152602081019050610201565b50505050905090810190601f1680156102495780820380516001836020036101000a031916815260200191505b509250505060405180910390f35b341561026257600080fd5b610297600480803573ffffffffffffffffffffffffffffffffffffffff16906020019091908035906020019091905050610d31565b005b34156102a457600080fd5b6102ac610e69565b6040518082815260200191505060405180910390f35b34156102cd57600080fd5b610321600480803573ffffffffffffffffffffffffffffffffffffffff1690602001909190803573ffffffffffffffffffffffffffffffffffffffff16906020019091908035906020019091905050610e73565b005b341561032e57600080fd5b610363600480803573ffffffffffffffffffffffffffffffffffffffff16906020019091908035906020019091905050610e97565b604051808215151515815260200191505060405180910390f35b341561038857600080fd5b6103bd600480803573ffffffffffffffffffffffffffffffffffffffff16906020019091908035906020019091905050610f5a565b6040518082815260200191505060405180910390f35b34156103de57600080fd5b6103e661102a565b6040518082815260200191505060405180910390f35b341561040757600080fd5b61040f611032565b005b341561041c57600080fd5b61043260048080359060200190919050506110e6565b6040518080602001828103825283818151815260200191508051906020019080838360005b83811015610472578082015181840152602081019050610457565b50505050905090810190601f16801561049f5780820380516001836020036101000a031916815260200191505b509250505060405180910390f35b34156104b857600080fd5b61050c600480803573ffffffffffffffffffffffffffffffffffffffff1690602001909190803573ffffffffffffffffffffffffffffffffffffffff16906020019091908035906020019091905050611196565b005b341561051957600080fd5b61052f60048080359060200190919050506111ba565b604051808215151515815260200191505060405180910390f35b341561055457600080fd5b610580600480803573ffffffffffffffffffffffffffffffffffffffff16906020019091905050611210565b6040518080602001828103825283818151815260200191508051906020019060200280838360005b838110156105c35780820151818401526020810190506105a8565b505050509050019250505060405180910390f35b34156105e257600080fd5b6105f860048080359060200190919050506112ad565b604051808273ffffffffffffffffffffffffffffffffffffffff1673ffffffffffffffffffffffffffffffffffffffff16815260200191505060405180910390f35b341561064557600080fd5b61065b60048080359060200190919050506112ea565b6040518080602001828103825283818151815260200191508051906020019080838360005b8381101561069b578082015181840152602081019050610680565b50505050905090810190601f1680156106c85780820380516001836020036101000a031916815260200191505b509250505060405180910390f35b34156106e157600080fd5b61070d600480803573ffffffffffffffffffffffffffffffffffffffff169060200190919050506113a5565b6040518082815260200191505060405180910390f35b341561072e57600080fd5b61077e600480803590602001908201803590602001908080601f016020809104026020016040519081016040528093929190818152602001838380828437820191505050505050919050506113f1565b604051808215151515815260200191505060405180910390f35b34156107a357600080fd5b6107ab6114a1565b6040518080602001828103825283818151815260200191508051906020019080838360005b838110156107eb5780820151818401526020810190506107d0565b50505050905090810190601f1680156108185780820380516001836020036101000a031916815260200191505b509250505060405180910390f35b341561083157600080fd5b610839611549565b604051808273ffffffffffffffffffffffffffffffffffffffff1673ffffffffffffffffffffffffffffffffffffffff16815260200191505060405180910390f35b341561088657600080fd5b61088e61156e565b6040518080602001828103825283818151815260200191508051906020019080838360005b838110156108ce5780820151818401526020810190506108b3565b50505050905090810190601f1680156108fb5780820380516001836020036101000a031916815260200191505b509250505060405180910390f35b341561091457600080fd5b61091c611616565b6040518082815260200191505060405180910390f35b341561093d57600080fd5b610974600480803573ffffffffffffffffffffffffffffffffffffffff16906020019091908035151590602001909190505061161c565b005b341561098157600080fd5b61099760048080359060200190919050506116d4565b005b34156109a457600080fd5b610a3b600480803573ffffffffffffffffffffffffffffffffffffffff1690602001909190803573ffffffffffffffffffffffffffffffffffffffff1690602001909190803590602001909190803590602001908201803590602001908080601f01602080910402602001604051908101604052809392919081815260200183838082843782019150505050505091905050611742565b005b3415610a4857600080fd5b610a93600480803573ffffffffffffffffffffffffffffffffffffffff1690602001909190803573ffffffffffffffffffffffffffffffffffffffff16906020019091905050611757565b604051808215151515815260200191505060405180910390f35b3415610ab857600080fd5b610ace60048080359060200190919050506117eb565b604051808273ffffffffffffffffffffffffffffffffffffffff1673ffffffffffffffffffffffffffffffffffffffff16815260200191505060405180910390f35b3415610b1b57600080fd5b610b47600480803573ffffffffffffffffffffffffffffffffffffffff16906020019091905050611828565b005b610b99600480803590602001908201803590602001908080601f016020809104026020016040519081016040528093929190818152602001838380828437820191505050505050919050506118c6565b005b600063ffffffff7c010000000000000000000000000000000000000000000000000000000002827bffffffffffffffffffffffffffffffffffffffffffffffffffffffff19161415610bf05760009050610c84565b6301ffc9a77c010000000000000000000000000000000000000000000000000000000002827bffffffffffffffffffffffffffffffffffffffffffffffffffffffff19161480610c815750637c0633c67c010000000000000000000000000000000000000000000000000000000002827bffffffffffffffffffffffffffffffffffffffffffffffffffffffff1916145b90505b919050565b610c9161259b565b60018054600181600116156101000203166002900480601f016020809104026020016040519081016040528092919081815260200182805460018160011615610100020316600290048015610d275780601f10610cfc57610100808354040283529160200191610d27565b820191906000526020600020905b815481529060010190602001808311610d0a57829003601f168201915b5050505050905090565b6000610d3c826112ad565b90508073ffffffffffffffffffffffffffffffffffffffff168373ffffffffffffffffffffffffffffffffffffffff1614151515610d7957600080fd5b8273ffffffffffffffffffffffffffffffffffffffff16610d99836117eb565b73ffffffffffffffffffffffffffffffffffffffff16141515610e645782600a600084815260200190815260200160002060006101000a81548173ffffffffffffffffffffffffffffffffffffffff021916908373ffffffffffffffffffffffffffffffffffffffff160217905550818373ffffffffffffffffffffffffffffffffffffffff168273ffffffffffffffffffffffffffffffffffffffff167f8c5be1e5ebec7d5bd14f71427d1e84f3dd0314c0f7b2291e5b200ac8c7c3b92560405160405180910390a45b505050565b6000600454905090565b610e9283838360206040519081016040528060008152503360006119b3565b505050565b60008060008473ffffffffffffffffffffffffffffffffffffffff1614151515610ec057600080fd5b610ec9836112ad565b90508073ffffffffffffffffffffffffffffffffffffffff168473ffffffffffffffffffffffffffffffffffffffff161415610f085760019150610f53565b610f128482611757565b80610f5057508373ffffffffffffffffffffffffffffffffffffffff16610f38846117eb565b73ffffffffffffffffffffffffffffffffffffffff16145b91505b5092915050565b6000600560008473ffffffffffffffffffffffffffffffffffffffff1673ffffffffffffffffffffffffffffffffffffffff1681526020019081526020016000208054905082101515610fac57600080fd5b6f8000000000000000000000000000000082101515610fca57600080fd5b600560008473ffffffffffffffffffffffffffffffffffffffff1673ffffffffffffffffffffffffffffffffffffffff1681526020019081526020016000208281548110151561101657fe5b906000526020600020900154905092915050565b600080905090565b6000809054906101000a900473ffffffffffffffffffffffffffffffffffffffff1673ffffffffffffffffffffffffffffffffffffffff163373ffffffffffffffffffffffffffffffffffffffff1614151561108d57600080fd5b3373ffffffffffffffffffffffffffffffffffffffff166108fc3073ffffffffffffffffffffffffffffffffffffffff16319081150290604051600060405180830381858888f1935050505015156110e457600080fd5b565b600b6020528060005260406000206000915090508054600181600116156101000203166002900480601f01602080910402602001604051908101604052809291908181526020018280546001816001161561010002031660029004801561118e5780601f106111635761010080835404028352916020019161118e565b820191906000526020600020905b81548152906001019060200180831161117157829003601f168201915b505050505081565b6111b583838360206040519081016040528060008152503360016119b3565b505050565b6000806006600084815260200190815260200160002060009054906101000a900473ffffffffffffffffffffffffffffffffffffffff1673ffffffffffffffffffffffffffffffffffffffff1614159050919050565b6112186125af565b600560008373ffffffffffffffffffffffffffffffffffffffff1673ffffffffffffffffffffffffffffffffffffffff1681526020019081526020016000208054806020026020016040519081016040528092919081815260200182805480156112a157602002820191906000526020600020905b81548152602001906001019080831161128d575b50505050509050919050565b60006006600083815260200190815260200160002060009054906101000a900473ffffffffffffffffffffffffffffffffffffffff169050919050565b6112f261259b565b600860008381526020019081526020016000208054600181600116156101000203166002900480601f0160208091040260200160405190810160405280929190818152602001828054600181600116156101000203166002900480156113995780601f1061136e57610100808354040283529160200191611399565b820191906000526020600020905b81548152906001019060200180831161137c57829003601f168201915b50505050509050919050565b6000600560008373ffffffffffffffffffffffffffffffffffffffff1673ffffffffffffffffffffffffffffffffffffffff168152602001908152602001600020805490509050919050565b600080826040518082805190602001908083835b60208310151561142a5780518252602082019150602081019050602083039250611405565b6001836020036101000a03801982511681845116808217855250505050505090500191505060405180910390206001900490506000600b60008381526020019081526020016000208054600181600116156101000203166002900490501415611496576001915061149b565b600091505b50919050565b6114a961259b565b60038054600181600116156101000203166002900480601f01602080910402602001604051908101604052809291908181526020018280546001816001161561010002031660029004801561153f5780601f106115145761010080835404028352916020019161153f565b820191906000526020600020905b81548152906001019060200180831161152257829003601f168201915b5050505050905090565b6000809054906101000a900473ffffffffffffffffffffffffffffffffffffffff1681565b61157661259b565b60028054600181600116156101000203166002900480601f01602080910402602001604051908101604052809291908181526020018280546001816001161561010002031660029004801561160c5780601f106115e15761010080835404028352916020019161160c565b820191906000526020600020905b8154815290600101906020018083116115ef57829003601f168201915b5050505050905090565b600c5481565b80156116475761162c8233611757565b15151561163857600080fd5b6116428233611df1565b611667565b6116518233611757565b151561165c57600080fd5b6116668233611e8a565b5b3373ffffffffffffffffffffffffffffffffffffffff168273ffffffffffffffffffffffffffffffffffffffff167f17307eab39ab6107e8899845ad3d59bd9653f200f220920489ca2b5937696c3183604051808215151515815260200191505060405180910390a35050565b6000809054906101000a900473ffffffffffffffffffffffffffffffffffffffff1673ffffffffffffffffffffffffffffffffffffffff163373ffffffffffffffffffffffffffffffffffffffff1614151561172f57600080fd5b66038d7ea4c680008102600c8190555050565b611751848484843360016119b3565b50505050565b6000600960008373ffffffffffffffffffffffffffffffffffffffff1673ffffffffffffffffffffffffffffffffffffffff16815260200190815260200160002060008473ffffffffffffffffffffffffffffffffffffffff1673ffffffffffffffffffffffffffffffffffffffff16815260200190815260200160002060009054906101000a900460ff16905092915050565b6000600a600083815260200190815260200160002060009054906101000a900473ffffffffffffffffffffffffffffffffffffffff169050919050565b6000809054906101000a900473ffffffffffffffffffffffffffffffffffffffff1673ffffffffffffffffffffffffffffffffffffffff163373ffffffffffffffffffffffffffffffffffffffff1614151561188357600080fd5b806000806101000a81548173ffffffffffffffffffffffffffffffffffffffff021916908373ffffffffffffffffffffffffffffffffffffffff16021790555050565b6000600c5434101515156118d957600080fd5b816040518082805190602001908083835b60208310151561190f57805182526020820191506020810190506020830392506118ea565b6001836020036101000a03801982511681845116808217855250505050505090500191505060405180910390206001900490506000600b600083815260200190815260200160002080546001816001161561010002031660029004905014156119af5761197c8133611f23565b81600b600083815260200190815260200160002090805190602001906119a39291906125c3565b506119ae818361201a565b5b5050565b6000808660008173ffffffffffffffffffffffffffffffffffffffff16141515156119dd57600080fd5b86888073ffffffffffffffffffffffffffffffffffffffff166006600084815260200190815260200160002060009054906101000a900473ffffffffffffffffffffffffffffffffffffffff1673ffffffffffffffffffffffffffffffffffffffff1614151515611a4d57600080fd5b8a898173ffffffffffffffffffffffffffffffffffffffff166006600083815260200190815260200160002060009054906101000a900473ffffffffffffffffffffffffffffffffffffffff1673ffffffffffffffffffffffffffffffffffffffff16141515611abc57600080fd5b8a611ac73382610e97565b1515611ad257600080fd5b600660008d815260200190815260200160002060009054906101000a900473ffffffffffffffffffffffffffffffffffffffff169750611b12888d612046565b611b1c888d612323565b611b268d8d612453565b888015611b385750611b378d612551565b5b15611ce25763f0b9e5ba7c0100000000000000000000000000000000000000000000000000000000029650867bffffffffffffffffffffffffffffffffffffffffffffffffffffffff19168d73ffffffffffffffffffffffffffffffffffffffff16635254a38c8e8b8f6000604051602001526040518463ffffffff167c0100000000000000000000000000000000000000000000000000000000028152600401808481526020018373ffffffffffffffffffffffffffffffffffffffff1673ffffffffffffffffffffffffffffffffffffffff16815260200180602001828103825283818151815260200191508051906020019080838360005b83811015611c4e578082015181840152602081019050611c33565b50505050905090810190601f168015611c7b5780820380516001836020036101000a031916815260200191505b50945050505050602060405180830381600087803b1515611c9b57600080fd5b6102c65a03f11515611cac57600080fd5b505050604051805190507bffffffffffffffffffffffffffffffffffffffffffffffffffffffff1916141515611ce157600080fd5b5b8b8d73ffffffffffffffffffffffffffffffffffffffff168973ffffffffffffffffffffffffffffffffffffffff167fd5c97f2e041b2046be3b4337472f05720760a198f4d7d84980b7155eec7cca6f8d8f604051808373ffffffffffffffffffffffffffffffffffffffff1673ffffffffffffffffffffffffffffffffffffffff16815260200180602001828103825283818151815260200191508051906020019080838360005b83811015611da6578082015181840152602081019050611d8b565b50505050905090810190601f168015611dd35780820380516001836020036101000a031916815260200191505b50935050505060405180910390a45050505050505050505050505050565b6001600960008373ffffffffffffffffffffffffffffffffffffffff1673ffffffffffffffffffffffffffffffffffffffff16815260200190815260200160002060008473ffffffffffffffffffffffffffffffffffffffff1673ffffffffffffffffffffffffffffffffffffffff16815260200190815260200160002060006101000a81548160ff0219169083151502179055505050565b6000600960008373ffffffffffffffffffffffffffffffffffffffff1673ffffffffffffffffffffffffffffffffffffffff16815260200190815260200160002060008473ffffffffffffffffffffffffffffffffffffffff1673ffffffffffffffffffffffffffffffffffffffff16815260200190815260200160002060006101000a81548160ff0219169083151502179055505050565b60006006600084815260200190815260200160002060009054906101000a900473ffffffffffffffffffffffffffffffffffffffff1673ffffffffffffffffffffffffffffffffffffffff16141515611f7b57600080fd5b611f858183612453565b818173ffffffffffffffffffffffffffffffffffffffff1660007fd5c97f2e041b2046be3b4337472f05720760a198f4d7d84980b7155eec7cca6f33604051808273ffffffffffffffffffffffffffffffffffffffff1673ffffffffffffffffffffffffffffffffffffffff168152602001806020018281038252600081526020016020019250505060405180910390a45050565b806008600084815260200190815260200160002090805190602001906120419291906125c3565b505050565b60008060006007600085815260200190815260200160002054925061207d600161206f876113a5565b61256490919063ffffffff16565b9150600560008673ffffffffffffffffffffffffffffffffffffffff1673ffffffffffffffffffffffffffffffffffffffff168152602001908152602001600020828154811015156120cb57fe5b906000526020600020900154905060006006600086815260200190815260200160002060006101000a81548173ffffffffffffffffffffffffffffffffffffffff021916908373ffffffffffffffffffffffffffffffffffffffff16021790555080600560008773ffffffffffffffffffffffffffffffffffffffff1673ffffffffffffffffffffffffffffffffffffffff1681526020019081526020016000208481548110151561217957fe5b9060005260206000209001819055506000600560008773ffffffffffffffffffffffffffffffffffffffff1673ffffffffffffffffffffffffffffffffffffffff168152602001908152602001600020838154811015156121d657fe5b906000526020600020900181905550600560008673ffffffffffffffffffffffffffffffffffffffff1673ffffffffffffffffffffffffffffffffffffffff1681526020019081526020016000208054809190600190036122379190612643565b506000600560008773ffffffffffffffffffffffffffffffffffffffff1673ffffffffffffffffffffffffffffffffffffffff1681526020019081526020016000208054905014156122cf57600560008673ffffffffffffffffffffffffffffffffffffffff1673ffffffffffffffffffffffffffffffffffffffff16815260200190815260200160002060006122ce919061266f565b5b60006007600086815260200190815260200160002081905550826007600083815260200190815260200160002081905550612316600160045461256490919063ffffffff16565b6004819055505050505050565b8173ffffffffffffffffffffffffffffffffffffffff16612343826112ad565b73ffffffffffffffffffffffffffffffffffffffff161480156123b057506000600a600083815260200190815260200160002060009054906101000a900473ffffffffffffffffffffffffffffffffffffffff1673ffffffffffffffffffffffffffffffffffffffff1614155b1561244f576000600a600083815260200190815260200160002060006101000a81548173ffffffffffffffffffffffffffffffffffffffff021916908373ffffffffffffffffffffffffffffffffffffffff1602179055508060008373ffffffffffffffffffffffffffffffffffffffff167f8c5be1e5ebec7d5bd14f71427d1e84f3dd0314c0f7b2291e5b200ac8c7c3b92560405160405180910390a45b5050565b6000826006600084815260200190815260200160002060006101000a81548173ffffffffffffffffffffffffffffffffffffffff021916908373ffffffffffffffffffffffffffffffffffffffff1602179055506124b0836113a5565b9050600560008473ffffffffffffffffffffffffffffffffffffffff1673ffffffffffffffffffffffffffffffffffffffff16815260200190815260200160002080548060010182816125039190612690565b916000526020600020900160008490919091505550806007600084815260200190815260200160002081905550612546600160045461257d90919063ffffffff16565b600481905550505050565b600080823b905060008111915050919050565b600082821115151561257257fe5b818303905092915050565b600080828401905083811015151561259157fe5b8091505092915050565b602060405190810160405280600081525090565b602060405190810160405280600081525090565b828054600181600116156101000203166002900490600052602060002090601f016020900481019282601f1061260457805160ff1916838001178555612632565b82800160010185558215612632579182015b82811115612631578251825591602001919060010190612616565b5b50905061263f91906126bc565b5090565b81548183558181151161266a5781836000526020600020918201910161266991906126bc565b5b505050565b508054600082559060005260206000209081019061268d91906126bc565b50565b8154818355818115116126b7578183600052602060002091820191016126b691906126bc565b5b505050565b6126de91905b808211156126da5760008160009055506001016126c2565b5090565b905600a165627a7a723058208b2f4be924b34d7485ec4ad0ede506a0853b12b0a3be004e4d50367440783ffd0029",
  "source": "pragma solidity ^0.4.17;\n\nimport 'erc821/contracts/FullAssetRegistry.sol';\n\n\ncontract Owned {\n  address public owner;\n\n  function Owned() public {\n    owner = msg.sender;\n  }\n\n  modifier onlyOwner {\n    require(msg.sender == owner);\n    _;\n  }\n\n  function transferOwnership(address newOwner) onlyOwner public {\n    owner = newOwner;\n  }\n}\n\n\ncontract TimewalkLand is Owned, FullAssetRegistry {\n\n  function TimewalkLand() public {\n    _name = \"TimewalkLand\";\n    _symbol = \"TWL\";\n    _description = \"First test of timewalk land tokens\";\n  }\n\n  // map assetId to placeId\n  mapping(uint256 => string) public placeIdLookup;\n\n  // expressed in wei\n  uint256 public price;\n\n  function setPrices(uint256 _newPriceInFinneey) onlyOwner public {\n    price = _newPriceInFinneey * 1 finney;\n  }\n\n  // check if the assetId is already taken\n  function claim(string _placeData) payable public {\n    require(msg.value >= price);\n\n    uint256 assetId = uint256(keccak256(_placeData));\n\n    if (bytes(placeIdLookup[assetId]).length == 0) {\n      _generate(assetId, msg.sender);\n\n      placeIdLookup[assetId] = _placeData;\n\n      _update(assetId, _placeData);\n    }\n  }\n\n  function placeAvailable(string _placeData) public view returns(bool) {\n    uint256 assetId = uint256(keccak256(_placeData));\n\n    if (bytes(placeIdLookup[assetId]).length == 0) {\n      return true;\n    } else {\n      return false;\n    }\n  }\n\n  function withdraw() onlyOwner public {\n    msg.sender.transfer(this.balance);\n  }\n\n}\n",
  "sourcePath": "/Users/nenadpalinkasevic/Desktop/blockchain/ethereum-token-contract/contracts/TimewalkLand.sol",
  "compiler": {
    "name": "solc",
    "version": "0.4.18+commit.9cf6e910.Emscripten.clang"
  },
  "schemaVersion": "1.0.1",
  "updatedAt": "2018-03-21T18:14:12.913Z"
}