{
  "contractName": "ERC721Base",
  "abi": [
    {
      "anonymous": false,
      "inputs": [
        {
          "indexed": true,
          "name": "from",
          "type": "address"
        },
        {
          "indexed": true,
          "name": "to",
          "type": "address"
        },
        {
          "indexed": true,
          "name": "assetId",
          "type": "uint256"
        },
        {
          "indexed": false,
          "name": "operator",
          "type": "address"
        },
        {
          "indexed": false,
          "name": "userData",
          "type": "bytes"
        }
      ],
      "name": "Transfer",
      "type": "event"
    },
    {
      "anonymous": false,
      "inputs": [
        {
          "indexed": true,
          "name": "operator",
          "type": "address"
        },
        {
          "indexed": true,
          "name": "holder",
          "type": "address"
        },
        {
          "indexed": false,
          "name": "authorized",
          "type": "bool"
        }
      ],
      "name": "ApprovalForAll",
      "type": "event"
    },
    {
      "anonymous": false,
      "inputs": [
        {
          "indexed": true,
          "name": "owner",
          "type": "address"
        },
        {
          "indexed": true,
          "name": "operator",
          "type": "address"
        },
        {
          "indexed": true,
          "name": "assetId",
          "type": "uint256"
        }
      ],
      "name": "Approval",
      "type": "event"
    },
    {
      "constant": true,
      "inputs": [],
      "name": "totalSupply",
      "outputs": [
        {
          "name": "",
          "type": "uint256"
        }
      ],
      "payable": false,
      "stateMutability": "view",
      "type": "function"
    },
    {
      "constant": true,
      "inputs": [
        {
          "name": "assetId",
          "type": "uint256"
        }
      ],
      "name": "ownerOf",
      "outputs": [
        {
          "name": "",
          "type": "address"
        }
      ],
      "payable": false,
      "stateMutability": "view",
      "type": "function"
    },
    {
      "constant": true,
      "inputs": [
        {
          "name": "owner",
          "type": "address"
        }
      ],
      "name": "balanceOf",
      "outputs": [
        {
          "name": "",
          "type": "uint256"
        }
      ],
      "payable": false,
      "stateMutability": "view",
      "type": "function"
    },
    {
      "constant": true,
      "inputs": [
        {
          "name": "operator",
          "type": "address"
        },
        {
          "name": "assetHolder",
          "type": "address"
        }
      ],
      "name": "isApprovedForAll",
      "outputs": [
        {
          "name": "",
          "type": "bool"
        }
      ],
      "payable": false,
      "stateMutability": "view",
      "type": "function"
    },
    {
      "constant": true,
      "inputs": [
        {
          "name": "assetId",
          "type": "uint256"
        }
      ],
      "name": "getApprovedAddress",
      "outputs": [
        {
          "name": "",
          "type": "address"
        }
      ],
      "payable": false,
      "stateMutability": "view",
      "type": "function"
    },
    {
      "constant": true,
      "inputs": [
        {
          "name": "operator",
          "type": "address"
        },
        {
          "name": "assetId",
          "type": "uint256"
        }
      ],
      "name": "isAuthorized",
      "outputs": [
        {
          "name": "",
          "type": "bool"
        }
      ],
      "payable": false,
      "stateMutability": "view",
      "type": "function"
    },
    {
      "constant": false,
      "inputs": [
        {
          "name": "operator",
          "type": "address"
        },
        {
          "name": "authorized",
          "type": "bool"
        }
      ],
      "name": "setApprovalForAll",
      "outputs": [],
      "payable": false,
      "stateMutability": "nonpayable",
      "type": "function"
    },
    {
      "constant": false,
      "inputs": [
        {
          "name": "operator",
          "type": "address"
        },
        {
          "name": "assetId",
          "type": "uint256"
        }
      ],
      "name": "approve",
      "outputs": [],
      "payable": false,
      "stateMutability": "nonpayable",
      "type": "function"
    },
    {
      "constant": false,
      "inputs": [
        {
          "name": "from",
          "type": "address"
        },
        {
          "name": "to",
          "type": "address"
        },
        {
          "name": "assetId",
          "type": "uint256"
        }
      ],
      "name": "safeTransferFrom",
      "outputs": [],
      "payable": false,
      "stateMutability": "nonpayable",
      "type": "function"
    },
    {
      "constant": false,
      "inputs": [
        {
          "name": "from",
          "type": "address"
        },
        {
          "name": "to",
          "type": "address"
        },
        {
          "name": "assetId",
          "type": "uint256"
        },
        {
          "name": "userData",
          "type": "bytes"
        }
      ],
      "name": "safeTransferFrom",
      "outputs": [],
      "payable": false,
      "stateMutability": "nonpayable",
      "type": "function"
    },
    {
      "constant": false,
      "inputs": [
        {
          "name": "from",
          "type": "address"
        },
        {
          "name": "to",
          "type": "address"
        },
        {
          "name": "assetId",
          "type": "uint256"
        }
      ],
      "name": "transferFrom",
      "outputs": [],
      "payable": false,
      "stateMutability": "nonpayable",
      "type": "function"
    },
    {
      "constant": true,
      "inputs": [
        {
          "name": "_interfaceID",
          "type": "bytes4"
        }
      ],
      "name": "supportsInterface",
      "outputs": [
        {
          "name": "",
          "type": "bool"
        }
      ],
      "payable": false,
      "stateMutability": "view",
      "type": "function"
    }
  ],
  "bytecode": "0x608060405234801561001057600080fd5b50611665806100206000396000f3006080604052600436106100ba576000357c0100000000000000000000000000000000000000000000000000000000900463ffffffff16806301ffc9a7146100bf578063095ea7b31461012357806318160ddd1461017057806323b872dd1461019b5780632972b0f01461020857806342842e0e1461026d5780636352211e146102da57806370a0823114610347578063a22cb4651461039e578063b88d4fde146103ed578063e985e9c5146104a0578063eca4742a1461051b575b600080fd5b3480156100cb57600080fd5b5061010960048036038101908080357bffffffffffffffffffffffffffffffffffffffffffffffffffffffff19169060200190929190505050610588565b604051808215151515815260200191505060405180910390f35b34801561012f57600080fd5b5061016e600480360381019080803573ffffffffffffffffffffffffffffffffffffffff16906020019092919080359060200190929190505050610676565b005b34801561017c57600080fd5b506101856107ae565b6040518082815260200191505060405180910390f35b3480156101a757600080fd5b50610206600480360381019080803573ffffffffffffffffffffffffffffffffffffffff169060200190929190803573ffffffffffffffffffffffffffffffffffffffff169060200190929190803590602001909291905050506107b8565b005b34801561021457600080fd5b50610253600480360381019080803573ffffffffffffffffffffffffffffffffffffffff169060200190929190803590602001909291905050506107dc565b604051808215151515815260200191505060405180910390f35b34801561027957600080fd5b506102d8600480360381019080803573ffffffffffffffffffffffffffffffffffffffff169060200190929190803573ffffffffffffffffffffffffffffffffffffffff1690602001909291908035906020019092919050505061089f565b005b3480156102e657600080fd5b50610305600480360381019080803590602001909291905050506108c3565b604051808273ffffffffffffffffffffffffffffffffffffffff1673ffffffffffffffffffffffffffffffffffffffff16815260200191505060405180910390f35b34801561035357600080fd5b50610388600480360381019080803573ffffffffffffffffffffffffffffffffffffffff169060200190929190505050610900565b6040518082815260200191505060405180910390f35b3480156103aa57600080fd5b506103eb600480360381019080803573ffffffffffffffffffffffffffffffffffffffff16906020019092919080351515906020019092919050505061094c565b005b3480156103f957600080fd5b5061049e600480360381019080803573ffffffffffffffffffffffffffffffffffffffff169060200190929190803573ffffffffffffffffffffffffffffffffffffffff16906020019092919080359060200190929190803590602001908201803590602001908080601f0160208091040260200160405190810160405280939291908181526020018383808284378201915050505050509192919290505050610a04565b005b3480156104ac57600080fd5b50610501600480360381019080803573ffffffffffffffffffffffffffffffffffffffff169060200190929190803573ffffffffffffffffffffffffffffffffffffffff169060200190929190505050610a19565b604051808215151515815260200191505060405180910390f35b34801561052757600080fd5b5061054660048036038101908080359060200190929190505050610aad565b604051808273ffffffffffffffffffffffffffffffffffffffff1673ffffffffffffffffffffffffffffffffffffffff16815260200191505060405180910390f35b600063ffffffff7c010000000000000000000000000000000000000000000000000000000002827bffffffffffffffffffffffffffffffffffffffffffffffffffffffff191614156105dd5760009050610671565b6301ffc9a77c010000000000000000000000000000000000000000000000000000000002827bffffffffffffffffffffffffffffffffffffffffffffffffffffffff1916148061066e5750637c0633c67c010000000000000000000000000000000000000000000000000000000002827bffffffffffffffffffffffffffffffffffffffffffffffffffffffff1916145b90505b919050565b6000610681826108c3565b90508073ffffffffffffffffffffffffffffffffffffffff168373ffffffffffffffffffffffffffffffffffffffff16141515156106be57600080fd5b8273ffffffffffffffffffffffffffffffffffffffff166106de83610aad565b73ffffffffffffffffffffffffffffffffffffffff161415156107a957826009600084815260200190815260200160002060006101000a81548173ffffffffffffffffffffffffffffffffffffffff021916908373ffffffffffffffffffffffffffffffffffffffff160217905550818373ffffffffffffffffffffffffffffffffffffffff168273ffffffffffffffffffffffffffffffffffffffff167f8c5be1e5ebec7d5bd14f71427d1e84f3dd0314c0f7b2291e5b200ac8c7c3b92560405160405180910390a45b505050565b6000600354905090565b6107d78383836020604051908101604052806000815250336000610aea565b505050565b60008060008473ffffffffffffffffffffffffffffffffffffffff161415151561080557600080fd5b61080e836108c3565b90508073ffffffffffffffffffffffffffffffffffffffff168473ffffffffffffffffffffffffffffffffffffffff16141561084d5760019150610898565b6108578482610a19565b8061089557508373ffffffffffffffffffffffffffffffffffffffff1661087d84610aad565b73ffffffffffffffffffffffffffffffffffffffff16145b91505b5092915050565b6108be8383836020604051908101604052806000815250336001610aea565b505050565b60006005600083815260200190815260200160002060009054906101000a900473ffffffffffffffffffffffffffffffffffffffff169050919050565b6000600460008373ffffffffffffffffffffffffffffffffffffffff1673ffffffffffffffffffffffffffffffffffffffff168152602001908152602001600020805490509050919050565b80156109775761095c8233610a19565b15151561096857600080fd5b6109728233610f40565b610997565b6109818233610a19565b151561098c57600080fd5b6109968233610fd9565b5b3373ffffffffffffffffffffffffffffffffffffffff168273ffffffffffffffffffffffffffffffffffffffff167f17307eab39ab6107e8899845ad3d59bd9653f200f220920489ca2b5937696c3183604051808215151515815260200191505060405180910390a35050565b610a1384848484336001610aea565b50505050565b6000600860008373ffffffffffffffffffffffffffffffffffffffff1673ffffffffffffffffffffffffffffffffffffffff16815260200190815260200160002060008473ffffffffffffffffffffffffffffffffffffffff1673ffffffffffffffffffffffffffffffffffffffff16815260200190815260200160002060009054906101000a900460ff16905092915050565b60006009600083815260200190815260200160002060009054906101000a900473ffffffffffffffffffffffffffffffffffffffff169050919050565b6000808660008173ffffffffffffffffffffffffffffffffffffffff1614151515610b1457600080fd5b86888073ffffffffffffffffffffffffffffffffffffffff166005600084815260200190815260200160002060009054906101000a900473ffffffffffffffffffffffffffffffffffffffff1673ffffffffffffffffffffffffffffffffffffffff1614151515610b8457600080fd5b8a898173ffffffffffffffffffffffffffffffffffffffff166005600083815260200190815260200160002060009054906101000a900473ffffffffffffffffffffffffffffffffffffffff1673ffffffffffffffffffffffffffffffffffffffff16141515610bf357600080fd5b8a610bfe33826107dc565b1515610c0957600080fd5b600560008d815260200190815260200160002060009054906101000a900473ffffffffffffffffffffffffffffffffffffffff169750610c49888d611072565b610c53888d61134c565b610c5d8d8d61147c565b888015610c6f5750610c6e8d61157d565b5b15610e315763f0b9e5ba7c0100000000000000000000000000000000000000000000000000000000029650867bffffffffffffffffffffffffffffffffffffffffffffffffffffffff19168d73ffffffffffffffffffffffffffffffffffffffff16635254a38c8e8b8f6040518463ffffffff167c0100000000000000000000000000000000000000000000000000000000028152600401808481526020018373ffffffffffffffffffffffffffffffffffffffff1673ffffffffffffffffffffffffffffffffffffffff16815260200180602001828103825283818151815260200191508051906020019080838360005b83811015610d7c578082015181840152602081019050610d61565b50505050905090810190601f168015610da95780820380516001836020036101000a031916815260200191505b50945050505050602060405180830381600087803b158015610dca57600080fd5b505af1158015610dde573d6000803e3d6000fd5b505050506040513d6020811015610df457600080fd5b81019080805190602001909291905050507bffffffffffffffffffffffffffffffffffffffffffffffffffffffff1916141515610e3057600080fd5b5b8b8d73ffffffffffffffffffffffffffffffffffffffff168973ffffffffffffffffffffffffffffffffffffffff167fd5c97f2e041b2046be3b4337472f05720760a198f4d7d84980b7155eec7cca6f8d8f604051808373ffffffffffffffffffffffffffffffffffffffff1673ffffffffffffffffffffffffffffffffffffffff16815260200180602001828103825283818151815260200191508051906020019080838360005b83811015610ef5578082015181840152602081019050610eda565b50505050905090810190601f168015610f225780820380516001836020036101000a031916815260200191505b50935050505060405180910390a45050505050505050505050505050565b6001600860008373ffffffffffffffffffffffffffffffffffffffff1673ffffffffffffffffffffffffffffffffffffffff16815260200190815260200160002060008473ffffffffffffffffffffffffffffffffffffffff1673ffffffffffffffffffffffffffffffffffffffff16815260200190815260200160002060006101000a81548160ff0219169083151502179055505050565b6000600860008373ffffffffffffffffffffffffffffffffffffffff1673ffffffffffffffffffffffffffffffffffffffff16815260200190815260200160002060008473ffffffffffffffffffffffffffffffffffffffff1673ffffffffffffffffffffffffffffffffffffffff16815260200190815260200160002060006101000a81548160ff0219169083151502179055505050565b6000806000600660008581526020019081526020016000205492506110a9600161109b87610900565b61159090919063ffffffff16565b9150600460008673ffffffffffffffffffffffffffffffffffffffff1673ffffffffffffffffffffffffffffffffffffffff168152602001908152602001600020828154811015156110f757fe5b9060005260206000200154905060006005600086815260200190815260200160002060006101000a81548173ffffffffffffffffffffffffffffffffffffffff021916908373ffffffffffffffffffffffffffffffffffffffff16021790555080600460008773ffffffffffffffffffffffffffffffffffffffff1673ffffffffffffffffffffffffffffffffffffffff168152602001908152602001600020848154811015156111a457fe5b90600052602060002001819055506000600460008773ffffffffffffffffffffffffffffffffffffffff1673ffffffffffffffffffffffffffffffffffffffff1681526020019081526020016000208381548110151561120057fe5b9060005260206000200181905550600460008673ffffffffffffffffffffffffffffffffffffffff1673ffffffffffffffffffffffffffffffffffffffff16815260200190815260200160002080548091906001900361126091906115c7565b506000600460008773ffffffffffffffffffffffffffffffffffffffff1673ffffffffffffffffffffffffffffffffffffffff1681526020019081526020016000208054905014156112f857600460008673ffffffffffffffffffffffffffffffffffffffff1673ffffffffffffffffffffffffffffffffffffffff16815260200190815260200160002060006112f791906115f3565b5b6000600660008681526020019081526020016000208190555082600660008381526020019081526020016000208190555061133f600160035461159090919063ffffffff16565b6003819055505050505050565b8173ffffffffffffffffffffffffffffffffffffffff1661136c826108c3565b73ffffffffffffffffffffffffffffffffffffffff161480156113d9575060006009600083815260200190815260200160002060009054906101000a900473ffffffffffffffffffffffffffffffffffffffff1673ffffffffffffffffffffffffffffffffffffffff1614155b156114785760006009600083815260200190815260200160002060006101000a81548173ffffffffffffffffffffffffffffffffffffffff021916908373ffffffffffffffffffffffffffffffffffffffff1602179055508060008373ffffffffffffffffffffffffffffffffffffffff167f8c5be1e5ebec7d5bd14f71427d1e84f3dd0314c0f7b2291e5b200ac8c7c3b92560405160405180910390a45b5050565b6000826005600084815260200190815260200160002060006101000a81548173ffffffffffffffffffffffffffffffffffffffff021916908373ffffffffffffffffffffffffffffffffffffffff1602179055506114d983610900565b9050600460008473ffffffffffffffffffffffffffffffffffffffff1673ffffffffffffffffffffffffffffffffffffffff16815260200190815260200160002082908060018154018082558091505090600182039060005260206000200160009091929091909150555080600660008481526020019081526020016000208190555061157260016003546115a990919063ffffffff16565b600381905550505050565b600080823b905060008111915050919050565b600082821115151561159e57fe5b818303905092915050565b60008082840190508381101515156115bd57fe5b8091505092915050565b8154818355818111156115ee578183600052602060002091820191016115ed9190611614565b5b505050565b50805460008255906000526020600020908101906116119190611614565b50565b61163691905b8082111561163257600081600090555060010161161a565b5090565b905600a165627a7a72305820b86517cf348ecfa2161db878bd677aa924a4646828be74eef90bedcdba35bb0e0029",
  "source": "pragma solidity ^0.4.18;\n\nimport 'zeppelin-solidity/contracts/math/SafeMath.sol';\n\nimport './AssetRegistryStorage.sol';\n\nimport './IERC721Base.sol';\n\nimport './IERC721Receiver.sol';\n\ninterface ERC165 {\n  function supportsInterface(bytes4 interfaceID) public view returns (bool);\n}\n\ncontract ERC721Base is AssetRegistryStorage, IERC721Base, ERC165 {\n  using SafeMath for uint256;\n\n  //\n  // Global Getters\n  //\n\n  /**\n   * @dev Gets the total amount of assets stored by the contract\n   * @return uint256 representing the total amount of assets\n   */\n  function totalSupply() public view returns (uint256) {\n    return _count;\n  }\n\n  //\n  // Asset-centric getter functions\n  //\n\n  /**\n   * @dev Queries what address owns an asset. This method does not throw.\n   * In order to check if the asset exists, use the `exists` function or check if the\n   * return value of this call is `0`.\n   * @return uint256 the assetId\n   */\n  function ownerOf(uint256 assetId) public view returns (address) {\n    return _holderOf[assetId];\n  }\n\n  //\n  // Holder-centric getter functions\n  //\n  /**\n   * @dev Gets the balance of the specified address\n   * @param owner address to query the balance of\n   * @return uint256 representing the amount owned by the passed address\n   */\n  function balanceOf(address owner) public view returns (uint256) {\n    return _assetsOf[owner].length;\n  }\n\n  //\n  // Authorization getters\n  //\n\n  /**\n   * @dev Query whether an address has been authorized to move any assets on behalf of someone else\n   * @param operator the address that might be authorized\n   * @param assetHolder the address that provided the authorization\n   * @return bool true if the operator has been authorized to move any assets\n   */\n  function isApprovedForAll(address operator, address assetHolder)\n    public view returns (bool)\n  {\n    return _operators[assetHolder][operator];\n  }\n\n  /**\n   * @dev Query what address has been particularly authorized to move an asset\n   * @param assetId the asset to be queried for\n   * @return bool true if the asset has been approved by the holder\n   */\n  function getApprovedAddress(uint256 assetId) public view returns (address) {\n    return _approval[assetId];\n  }\n\n  /**\n   * @dev Query if an operator can move an asset.\n   * @param operator the address that might be authorized\n   * @param assetId the asset that has been `approved` for transfer\n   * @return bool true if the asset has been approved by the holder\n   */\n  function isAuthorized(address operator, uint256 assetId)\n    public view returns (bool)\n  {\n    require(operator != 0);\n    address owner = ownerOf(assetId);\n    if (operator == owner) {\n      return true;\n    }\n    return isApprovedForAll(operator, owner) || getApprovedAddress(assetId) == operator;\n  }\n\n  //\n  // Authorization\n  //\n\n  /**\n   * @dev Authorize a third party operator to manage (send) msg.sender's asset\n   * @param operator address to be approved\n   * @param authorized bool set to true to authorize, false to withdraw authorization\n   */\n  function setApprovalForAll(address operator, bool authorized) public {\n    if (authorized) {\n      require(!isApprovedForAll(operator, msg.sender));\n      _addAuthorization(operator, msg.sender);\n    } else {\n      require(isApprovedForAll(operator, msg.sender));\n      _clearAuthorization(operator, msg.sender);\n    }\n    ApprovalForAll(operator, msg.sender, authorized);\n  }\n\n  /**\n   * @dev Authorize a third party operator to manage one particular asset\n   * @param operator address to be approved\n   * @param assetId asset to approve\n   */\n  function approve(address operator, uint256 assetId) public {\n    address holder = ownerOf(assetId);\n    require(operator != holder);\n    if (getApprovedAddress(assetId) != operator) {\n      _approval[assetId] = operator;\n      Approval(holder, operator, assetId);\n    }\n  }\n\n  function _addAuthorization(address operator, address holder) private {\n    _operators[holder][operator] = true;\n  }\n\n  function _clearAuthorization(address operator, address holder) private {\n    _operators[holder][operator] = false;\n  }\n\n  //\n  // Internal Operations\n  //\n\n  function _addAssetTo(address to, uint256 assetId) internal {\n    _holderOf[assetId] = to;\n\n    uint256 length = balanceOf(to);\n\n    _assetsOf[to].push(assetId);\n\n    _indexOfAsset[assetId] = length;\n\n    _count = _count.add(1);\n  }\n\n  function _removeAssetFrom(address from, uint256 assetId) internal {\n    uint256 assetIndex = _indexOfAsset[assetId];\n    uint256 lastAssetIndex = balanceOf(from).sub(1);\n    uint256 lastAssetId = _assetsOf[from][lastAssetIndex];\n\n    _holderOf[assetId] = 0;\n\n    // Insert the last asset into the position previously occupied by the asset to be removed\n    _assetsOf[from][assetIndex] = lastAssetId;\n\n    // Resize the array\n    _assetsOf[from][lastAssetIndex] = 0;\n    _assetsOf[from].length--;\n\n    // Remove the array if no more assets are owned to prevent pollution\n    if (_assetsOf[from].length == 0) {\n      delete _assetsOf[from];\n    }\n\n    // Update the index of positions for the asset\n    _indexOfAsset[assetId] = 0;\n    _indexOfAsset[lastAssetId] = assetIndex;\n\n    _count = _count.sub(1);\n  }\n\n  function _clearApproval(address holder, uint256 assetId) internal {\n    if (ownerOf(assetId) == holder && _approval[assetId] != 0) {\n      _approval[assetId] = 0;\n      Approval(holder, 0, assetId);\n    }\n  }\n\n  //\n  // Supply-altering functions\n  //\n\n  function _generate(uint256 assetId, address beneficiary) internal {\n    require(_holderOf[assetId] == 0);\n\n    _addAssetTo(beneficiary, assetId);\n\n    Transfer(0, beneficiary, assetId, msg.sender, '');\n  }\n\n  function _destroy(uint256 assetId) internal {\n    address holder = _holderOf[assetId];\n    require(holder != 0);\n\n    _removeAssetFrom(holder, assetId);\n\n    Transfer(holder, 0, assetId, msg.sender, '');\n  }\n\n  //\n  // Transaction related operations\n  //\n\n  modifier onlyHolder(uint256 assetId) {\n    require(_holderOf[assetId] == msg.sender);\n    _;\n  }\n\n  modifier onlyAuthorized(uint256 assetId) {\n    require(isAuthorized(msg.sender, assetId));\n    _;\n  }\n\n  modifier isCurrentOwner(address from, uint256 assetId) {\n    require(_holderOf[assetId] == from);\n    _;\n  }\n\n  modifier isDestinataryDefined(address destinatary) {\n    require(destinatary != 0);\n    _;\n  }\n\n  modifier destinataryIsNotHolder(uint256 assetId, address to) {\n    require(_holderOf[assetId] != to);\n    _;\n  }\n\n  /**\n   * @dev Alias of `safeTransferFrom(from, to, assetId, '')`\n   *\n   * @param from address that currently owns an asset\n   * @param to address to receive the ownership of the asset\n   * @param assetId uint256 ID of the asset to be transferred\n   */\n  function safeTransferFrom(address from, address to, uint256 assetId) public {\n    return _doTransferFrom(from, to, assetId, '', msg.sender, true);\n  }\n\n  /**\n   * @dev Securely transfers the ownership of a given asset from one address to\n   * another address, calling the method `onNFTReceived` on the target address if\n   * there's code associated with it\n   *\n   * @param from address that currently owns an asset\n   * @param to address to receive the ownership of the asset\n   * @param assetId uint256 ID of the asset to be transferred\n   * @param userData bytes arbitrary user information to attach to this transfer\n   */\n  function safeTransferFrom(address from, address to, uint256 assetId, bytes userData) public {\n    return _doTransferFrom(from, to, assetId, userData, msg.sender, true);\n  }\n\n  /**\n   * @dev Transfers the ownership of a given asset from one address to another address\n   * Warning! This function does not attempt to verify that the target address can send\n   * tokens.\n   *\n   * @param from address sending the asset\n   * @param to address to receive the ownership of the asset\n   * @param assetId uint256 ID of the asset to be transferred\n   */\n  function transferFrom(address from, address to, uint256 assetId) public {\n    return _doTransferFrom(from, to, assetId, '', msg.sender, false);\n  }\n\n  function _doTransferFrom(\n    address from,\n    address to,\n    uint256 assetId,\n    bytes userData,\n    address operator,\n    bool doCheck\n  )\n    isDestinataryDefined(to)\n    destinataryIsNotHolder(assetId, to)\n    isCurrentOwner(from, assetId)\n    onlyAuthorized(assetId)\n    internal\n  {\n    address holder = _holderOf[assetId];\n    _removeAssetFrom(holder, assetId);\n    _clearApproval(holder, assetId);\n    _addAssetTo(to, assetId);\n\n    if (doCheck && _isContract(to)) {\n      // Equals to bytes4(keccak256(\"onERC721Received(address,uint256,bytes)\"))\n      bytes4 ERC721_RECEIVED = bytes4(0xf0b9e5ba);\n      require(\n        IERC721Receiver(to).onERC721Received(\n          assetId, holder, userData\n        ) == ERC721_RECEIVED\n      );\n    }\n\n    Transfer(holder, to, assetId, operator, userData);\n  }\n\n  /**\n   * @dev Returns `true` if the contract implements `interfaceID` and `interfaceID` is not 0xffffffff, `false` otherwise\n   * @param  _interfaceID The interface identifier, as specified in ERC-165\n   */\n  function supportsInterface(bytes4 _interfaceID) public view returns (bool) {\n\n    if (_interfaceID == 0xffffffff) {\n      return false;\n    }\n    return _interfaceID == 0x01ffc9a7 || _interfaceID == 0x7c0633c6;\n  }\n\n  //\n  // Utilities\n  //\n\n  function _isContract(address addr) internal view returns (bool) {\n    uint size;\n    assembly { size := extcodesize(addr) }\n    return size > 0;\n  }\n}\n",
  "sourcePath": "erc821/contracts/ERC721Base.sol",
  "compiler": {
    "name": "solc",
    "version": "0.4.23+commit.124ca40d.Emscripten.clang"
  },
  "schemaVersion": "2.0.0",
  "updatedAt": "2018-04-30T18:47:05.903Z"
}