{
  "contractName": "ERC721Enumerable",
  "abi": [
    {
      "constant": true,
      "inputs": [
        {
          "name": "owner",
          "type": "address"
        }
      ],
      "name": "tokensOf",
      "outputs": [
        {
          "name": "",
          "type": "uint256[]"
        }
      ],
      "payable": false,
      "stateMutability": "view",
      "type": "function"
    },
    {
      "constant": true,
      "inputs": [
        {
          "name": "owner",
          "type": "address"
        },
        {
          "name": "index",
          "type": "uint256"
        }
      ],
      "name": "tokenOfOwnerByIndex",
      "outputs": [
        {
          "name": "assetId",
          "type": "uint256"
        }
      ],
      "payable": false,
      "stateMutability": "view",
      "type": "function"
    }
  ],
  "bytecode": "0x608060405234801561001057600080fd5b506102dc806100206000396000f30060806040526004361061004c576000357c0100000000000000000000000000000000000000000000000000000000900463ffffffff1680632f745c59146100515780635a3f2672146100b2575b600080fd5b34801561005d57600080fd5b5061009c600480360381019080803573ffffffffffffffffffffffffffffffffffffffff1690602001909291908035906020019092919050505061014a565b6040518082815260200191505060405180910390f35b3480156100be57600080fd5b506100f3600480360381019080803573ffffffffffffffffffffffffffffffffffffffff169060200190929190505050610219565b6040518080602001828103825283818151815260200191508051906020019060200280838360005b8381101561013657808201518184015260208101905061011b565b505050509050019250505060405180910390f35b6000600460008473ffffffffffffffffffffffffffffffffffffffff1673ffffffffffffffffffffffffffffffffffffffff168152602001908152602001600020805490508210151561019c57600080fd5b6f80000000000000000000000000000000821015156101ba57600080fd5b600460008473ffffffffffffffffffffffffffffffffffffffff1673ffffffffffffffffffffffffffffffffffffffff1681526020019081526020016000208281548110151561020657fe5b9060005260206000200154905092915050565b6060600460008373ffffffffffffffffffffffffffffffffffffffff1673ffffffffffffffffffffffffffffffffffffffff1681526020019081526020016000208054806020026020016040519081016040528092919081815260200182805480156102a457602002820191906000526020600020905b815481526020019060010190808311610290575b505050505090509190505600a165627a7a723058201e90c50ec6e9e8ec29c8dfa9df81ba19458a6bbcfd84b1bd33d7a3f480a2ab3b0029",
  "source": "pragma solidity ^0.4.18;\n\nimport './IERC721Enumerable.sol';\nimport './AssetRegistryStorage.sol';\n\ncontract ERC721Enumerable is AssetRegistryStorage, IERC721Enumerable {\n\n  /**\n   * @notice Get all tokens of a given address\n   * @dev This is not intended to be used on-chain\n   * @param owner address of the owner to query\n   * @return a list of all assetIds of a user\n   */\n  function tokensOf(address owner) external view returns (uint256[]) {\n    return _assetsOf[owner];\n  }\n\n  /**\n   * @notice Enumerate tokens assigned to an owner\n   * @dev Throws if `index` >= `balanceOf(owner)` or if\n   *  `owner` is the zero address, representing invalid assets.\n   *  Otherwise this must not throw.\n   * @param owner An address where we are interested in assets owned by them\n   * @param index A counter less than `balanceOf(owner)`\n   * @return The identifier for the `index`th asset assigned to `owner`,\n   *   (sort order not specified)\n   */\n  function tokenOfOwnerByIndex(\n    address owner, uint256 index\n  )\n    external\n    view\n    returns (uint256 assetId)\n  {\n    require(index < _assetsOf[owner].length);\n    require(index < (1<<127));\n    return _assetsOf[owner][index];\n  }\n\n}\n",
  "sourcePath": "erc821/contracts/ERC721Enumerable.sol",
  "compiler": {
    "name": "solc",
    "version": "0.4.23+commit.124ca40d.Emscripten.clang"
  },
  "schemaVersion": "2.0.0",
  "updatedAt": "2018-04-30T18:49:03.880Z"
}