{
  "contractName": "ERC721Enumerable",
  "abi": [
    {
      "constant": true,
      "inputs": [
        {
          "name": "owner",
          "type": "address"
        }
      ],
      "name": "tokensOf",
      "outputs": [
        {
          "name": "",
          "type": "uint256[]"
        }
      ],
      "payable": false,
      "stateMutability": "view",
      "type": "function"
    },
    {
      "constant": true,
      "inputs": [
        {
          "name": "owner",
          "type": "address"
        },
        {
          "name": "index",
          "type": "uint256"
        }
      ],
      "name": "tokenOfOwnerByIndex",
      "outputs": [
        {
          "name": "assetId",
          "type": "uint256"
        }
      ],
      "payable": false,
      "stateMutability": "view",
      "type": "function"
    }
  ],
  "bytecode": "0x6060604052341561000f57600080fd5b6102e28061001e6000396000f30060606040526004361061004c576000357c0100000000000000000000000000000000000000000000000000000000900463ffffffff1680632f745c59146100515780635a3f2672146100a7575b600080fd5b341561005c57600080fd5b610091600480803573ffffffffffffffffffffffffffffffffffffffff16906020019091908035906020019091905050610135565b6040518082815260200191505060405180910390f35b34156100b257600080fd5b6100de600480803573ffffffffffffffffffffffffffffffffffffffff16906020019091905050610205565b6040518080602001828103825283818151815260200191508051906020019060200280838360005b83811015610121578082015181840152602081019050610106565b505050509050019250505060405180910390f35b6000600460008473ffffffffffffffffffffffffffffffffffffffff1673ffffffffffffffffffffffffffffffffffffffff168152602001908152602001600020805490508210151561018757600080fd5b6f80000000000000000000000000000000821015156101a557600080fd5b600460008473ffffffffffffffffffffffffffffffffffffffff1673ffffffffffffffffffffffffffffffffffffffff168152602001908152602001600020828154811015156101f157fe5b906000526020600020900154905092915050565b61020d6102a2565b600460008373ffffffffffffffffffffffffffffffffffffffff1673ffffffffffffffffffffffffffffffffffffffff16815260200190815260200160002080548060200260200160405190810160405280929190818152602001828054801561029657602002820191906000526020600020905b815481526020019060010190808311610282575b50505050509050919050565b6020604051908101604052806000815250905600a165627a7a7230582040ddcf3c12a5370ce9d2cc0a95c8342366a61dc26b0240ba60e415de0a94646a0029",
  "source": "pragma solidity ^0.4.18;\n\nimport './IERC721Enumerable.sol';\nimport './AssetRegistryStorage.sol';\n\ncontract ERC721Enumerable is AssetRegistryStorage, IERC721Enumerable {\n\n  /**\n   * @notice Get all tokens of a given address\n   * @dev This is not intended to be used on-chain\n   * @param owner address of the owner to query\n   * @return a list of all assetIds of a user\n   */\n  function tokensOf(address owner) public view returns (uint256[]) {\n    return _assetsOf[owner];\n  }\n\n  /**\n   * @notice Enumerate tokens assigned to an owner\n   * @dev Throws if `index` >= `balanceOf(owner)` or if\n   *  `owner` is the zero address, representing invalid assets.\n   *  Otherwise this must not throw.\n   * @param owner An address where we are interested in assets owned by them\n   * @param index A counter less than `balanceOf(owner)`\n   * @return The identifier for the `index`th asset assigned to `owner`,\n   *   (sort order not specified)\n   */\n  function tokenOfOwnerByIndex(\n    address owner, uint256 index\n    ) public view returns (uint256 assetId)\n  {\n    require(index < _assetsOf[owner].length);\n    require(index < (1<<127));\n    return _assetsOf[owner][index];\n  }\n\n}\n",
  "sourcePath": "erc821/contracts/ERC721Enumerable.sol",
  "compiler": {
    "name": "solc",
    "version": "0.4.19+commit.c4cbbb05.Emscripten.clang"
  },
  "schemaVersion": "2.0.0",
  "updatedAt": "2018-03-19T16:37:49.193Z"
}