{
  "contractName": "ERC721Base",
  "abi": [
    {
      "anonymous": false,
      "inputs": [
        {
          "indexed": true,
          "name": "from",
          "type": "address"
        },
        {
          "indexed": true,
          "name": "to",
          "type": "address"
        },
        {
          "indexed": true,
          "name": "assetId",
          "type": "uint256"
        },
        {
          "indexed": false,
          "name": "operator",
          "type": "address"
        },
        {
          "indexed": false,
          "name": "userData",
          "type": "bytes"
        }
      ],
      "name": "Transfer",
      "type": "event"
    },
    {
      "anonymous": false,
      "inputs": [
        {
          "indexed": true,
          "name": "operator",
          "type": "address"
        },
        {
          "indexed": true,
          "name": "holder",
          "type": "address"
        },
        {
          "indexed": false,
          "name": "authorized",
          "type": "bool"
        }
      ],
      "name": "ApprovalForAll",
      "type": "event"
    },
    {
      "anonymous": false,
      "inputs": [
        {
          "indexed": true,
          "name": "owner",
          "type": "address"
        },
        {
          "indexed": true,
          "name": "operator",
          "type": "address"
        },
        {
          "indexed": true,
          "name": "assetId",
          "type": "uint256"
        }
      ],
      "name": "Approval",
      "type": "event"
    },
    {
      "constant": true,
      "inputs": [],
      "name": "totalSupply",
      "outputs": [
        {
          "name": "",
          "type": "uint256"
        }
      ],
      "payable": false,
      "stateMutability": "view",
      "type": "function"
    },
    {
      "constant": true,
      "inputs": [
        {
          "name": "assetId",
          "type": "uint256"
        }
      ],
      "name": "ownerOf",
      "outputs": [
        {
          "name": "",
          "type": "address"
        }
      ],
      "payable": false,
      "stateMutability": "view",
      "type": "function"
    },
    {
      "constant": true,
      "inputs": [
        {
          "name": "owner",
          "type": "address"
        }
      ],
      "name": "balanceOf",
      "outputs": [
        {
          "name": "",
          "type": "uint256"
        }
      ],
      "payable": false,
      "stateMutability": "view",
      "type": "function"
    },
    {
      "constant": true,
      "inputs": [
        {
          "name": "operator",
          "type": "address"
        },
        {
          "name": "assetHolder",
          "type": "address"
        }
      ],
      "name": "isApprovedForAll",
      "outputs": [
        {
          "name": "",
          "type": "bool"
        }
      ],
      "payable": false,
      "stateMutability": "view",
      "type": "function"
    },
    {
      "constant": true,
      "inputs": [
        {
          "name": "assetId",
          "type": "uint256"
        }
      ],
      "name": "getApprovedAddress",
      "outputs": [
        {
          "name": "",
          "type": "address"
        }
      ],
      "payable": false,
      "stateMutability": "view",
      "type": "function"
    },
    {
      "constant": true,
      "inputs": [
        {
          "name": "operator",
          "type": "address"
        },
        {
          "name": "assetId",
          "type": "uint256"
        }
      ],
      "name": "isAuthorized",
      "outputs": [
        {
          "name": "",
          "type": "bool"
        }
      ],
      "payable": false,
      "stateMutability": "view",
      "type": "function"
    },
    {
      "constant": false,
      "inputs": [
        {
          "name": "operator",
          "type": "address"
        },
        {
          "name": "authorized",
          "type": "bool"
        }
      ],
      "name": "setApprovalForAll",
      "outputs": [],
      "payable": false,
      "stateMutability": "nonpayable",
      "type": "function"
    },
    {
      "constant": false,
      "inputs": [
        {
          "name": "operator",
          "type": "address"
        },
        {
          "name": "assetId",
          "type": "uint256"
        }
      ],
      "name": "approve",
      "outputs": [],
      "payable": false,
      "stateMutability": "nonpayable",
      "type": "function"
    },
    {
      "constant": false,
      "inputs": [
        {
          "name": "from",
          "type": "address"
        },
        {
          "name": "to",
          "type": "address"
        },
        {
          "name": "assetId",
          "type": "uint256"
        }
      ],
      "name": "safeTransferFrom",
      "outputs": [],
      "payable": false,
      "stateMutability": "nonpayable",
      "type": "function"
    },
    {
      "constant": false,
      "inputs": [
        {
          "name": "from",
          "type": "address"
        },
        {
          "name": "to",
          "type": "address"
        },
        {
          "name": "assetId",
          "type": "uint256"
        },
        {
          "name": "userData",
          "type": "bytes"
        }
      ],
      "name": "safeTransferFrom",
      "outputs": [],
      "payable": false,
      "stateMutability": "nonpayable",
      "type": "function"
    },
    {
      "constant": false,
      "inputs": [
        {
          "name": "from",
          "type": "address"
        },
        {
          "name": "to",
          "type": "address"
        },
        {
          "name": "assetId",
          "type": "uint256"
        }
      ],
      "name": "transferFrom",
      "outputs": [],
      "payable": false,
      "stateMutability": "nonpayable",
      "type": "function"
    },
    {
      "constant": true,
      "inputs": [
        {
          "name": "_interfaceID",
          "type": "bytes4"
        }
      ],
      "name": "supportsInterface",
      "outputs": [
        {
          "name": "",
          "type": "bool"
        }
      ],
      "payable": false,
      "stateMutability": "view",
      "type": "function"
    }
  ],
  "bytecode": "0x6060604052341561000f57600080fd5b6115798061001e6000396000f3006060604052600436106100ba576000357c0100000000000000000000000000000000000000000000000000000000900463ffffffff16806301ffc9a7146100bf578063095ea7b31461011957806318160ddd1461015b57806323b872dd146101845780632972b0f0146101e557806342842e0e1461023f5780636352211e146102a057806370a0823114610303578063a22cb46514610350578063b88d4fde14610394578063e985e9c514610438578063eca4742a146104a8575b600080fd5b34156100ca57600080fd5b6100ff60048080357bffffffffffffffffffffffffffffffffffffffffffffffffffffffff191690602001909190505061050b565b604051808215151515815260200191505060405180910390f35b341561012457600080fd5b610159600480803573ffffffffffffffffffffffffffffffffffffffff169060200190919080359060200190919050506105f9565b005b341561016657600080fd5b61016e610731565b6040518082815260200191505060405180910390f35b341561018f57600080fd5b6101e3600480803573ffffffffffffffffffffffffffffffffffffffff1690602001909190803573ffffffffffffffffffffffffffffffffffffffff1690602001909190803590602001909190505061073b565b005b34156101f057600080fd5b610225600480803573ffffffffffffffffffffffffffffffffffffffff1690602001909190803590602001909190505061075f565b604051808215151515815260200191505060405180910390f35b341561024a57600080fd5b61029e600480803573ffffffffffffffffffffffffffffffffffffffff1690602001909190803573ffffffffffffffffffffffffffffffffffffffff16906020019091908035906020019091905050610822565b005b34156102ab57600080fd5b6102c16004808035906020019091905050610846565b604051808273ffffffffffffffffffffffffffffffffffffffff1673ffffffffffffffffffffffffffffffffffffffff16815260200191505060405180910390f35b341561030e57600080fd5b61033a600480803573ffffffffffffffffffffffffffffffffffffffff16906020019091905050610883565b6040518082815260200191505060405180910390f35b341561035b57600080fd5b610392600480803573ffffffffffffffffffffffffffffffffffffffff1690602001909190803515159060200190919050506108cf565b005b341561039f57600080fd5b610436600480803573ffffffffffffffffffffffffffffffffffffffff1690602001909190803573ffffffffffffffffffffffffffffffffffffffff1690602001909190803590602001909190803590602001908201803590602001908080601f01602080910402602001604051908101604052809392919081815260200183838082843782019150505050505091905050610987565b005b341561044357600080fd5b61048e600480803573ffffffffffffffffffffffffffffffffffffffff1690602001909190803573ffffffffffffffffffffffffffffffffffffffff1690602001909190505061099c565b604051808215151515815260200191505060405180910390f35b34156104b357600080fd5b6104c96004808035906020019091905050610a30565b604051808273ffffffffffffffffffffffffffffffffffffffff1673ffffffffffffffffffffffffffffffffffffffff16815260200191505060405180910390f35b600063ffffffff7c010000000000000000000000000000000000000000000000000000000002827bffffffffffffffffffffffffffffffffffffffffffffffffffffffff1916141561056057600090506105f4565b6301ffc9a77c010000000000000000000000000000000000000000000000000000000002827bffffffffffffffffffffffffffffffffffffffffffffffffffffffff191614806105f15750637c0633c67c010000000000000000000000000000000000000000000000000000000002827bffffffffffffffffffffffffffffffffffffffffffffffffffffffff1916145b90505b919050565b600061060482610846565b90508073ffffffffffffffffffffffffffffffffffffffff168373ffffffffffffffffffffffffffffffffffffffff161415151561064157600080fd5b8273ffffffffffffffffffffffffffffffffffffffff1661066183610a30565b73ffffffffffffffffffffffffffffffffffffffff1614151561072c57826009600084815260200190815260200160002060006101000a81548173ffffffffffffffffffffffffffffffffffffffff021916908373ffffffffffffffffffffffffffffffffffffffff160217905550818373ffffffffffffffffffffffffffffffffffffffff168273ffffffffffffffffffffffffffffffffffffffff167f8c5be1e5ebec7d5bd14f71427d1e84f3dd0314c0f7b2291e5b200ac8c7c3b92560405160405180910390a45b505050565b6000600354905090565b61075a8383836020604051908101604052806000815250336000610a6d565b505050565b60008060008473ffffffffffffffffffffffffffffffffffffffff161415151561078857600080fd5b61079183610846565b90508073ffffffffffffffffffffffffffffffffffffffff168473ffffffffffffffffffffffffffffffffffffffff1614156107d0576001915061081b565b6107da848261099c565b8061081857508373ffffffffffffffffffffffffffffffffffffffff1661080084610a30565b73ffffffffffffffffffffffffffffffffffffffff16145b91505b5092915050565b6108418383836020604051908101604052806000815250336001610a6d565b505050565b60006005600083815260200190815260200160002060009054906101000a900473ffffffffffffffffffffffffffffffffffffffff169050919050565b6000600460008373ffffffffffffffffffffffffffffffffffffffff1673ffffffffffffffffffffffffffffffffffffffff168152602001908152602001600020805490509050919050565b80156108fa576108df823361099c565b1515156108eb57600080fd5b6108f58233610e28565b61091a565b610904823361099c565b151561090f57600080fd5b6109198233610ec1565b5b3373ffffffffffffffffffffffffffffffffffffffff168273ffffffffffffffffffffffffffffffffffffffff167f17307eab39ab6107e8899845ad3d59bd9653f200f220920489ca2b5937696c3183604051808215151515815260200191505060405180910390a35050565b61099684848484336001610a6d565b50505050565b6000600860008373ffffffffffffffffffffffffffffffffffffffff1673ffffffffffffffffffffffffffffffffffffffff16815260200190815260200160002060008473ffffffffffffffffffffffffffffffffffffffff1673ffffffffffffffffffffffffffffffffffffffff16815260200190815260200160002060009054906101000a900460ff16905092915050565b60006009600083815260200190815260200160002060009054906101000a900473ffffffffffffffffffffffffffffffffffffffff169050919050565b60008560008173ffffffffffffffffffffffffffffffffffffffff1614151515610a9657600080fd5b85878073ffffffffffffffffffffffffffffffffffffffff166005600084815260200190815260200160002060009054906101000a900473ffffffffffffffffffffffffffffffffffffffff1673ffffffffffffffffffffffffffffffffffffffff1614151515610b0657600080fd5b89888173ffffffffffffffffffffffffffffffffffffffff166005600083815260200190815260200160002060009054906101000a900473ffffffffffffffffffffffffffffffffffffffff1673ffffffffffffffffffffffffffffffffffffffff16141515610b7557600080fd5b89610b80338261075f565b1515610b8b57600080fd5b600560008c815260200190815260200160002060009054906101000a900473ffffffffffffffffffffffffffffffffffffffff169650610bcb878c610f5a565b610bd5878c611237565b610bdf8c8c611367565b878015610bf15750610bf08c611465565b5b15610d1a578b73ffffffffffffffffffffffffffffffffffffffff16635254a38c61c3508d8a8e6040518563ffffffff167c0100000000000000000000000000000000000000000000000000000000028152600401808481526020018373ffffffffffffffffffffffffffffffffffffffff1673ffffffffffffffffffffffffffffffffffffffff16815260200180602001828103825283818151815260200191508051906020019080838360005b83811015610cbb578082015181840152602081019050610ca0565b50505050905090810190601f168015610ce85780820380516001836020036101000a031916815260200191505b50945050505050600060405180830381600088803b1515610d0857600080fd5b87f11515610d1557600080fd5b505050505b8a8c73ffffffffffffffffffffffffffffffffffffffff168873ffffffffffffffffffffffffffffffffffffffff167fd5c97f2e041b2046be3b4337472f05720760a198f4d7d84980b7155eec7cca6f8c8e604051808373ffffffffffffffffffffffffffffffffffffffff1673ffffffffffffffffffffffffffffffffffffffff16815260200180602001828103825283818151815260200191508051906020019080838360005b83811015610dde578082015181840152602081019050610dc3565b50505050905090810190601f168015610e0b5780820380516001836020036101000a031916815260200191505b50935050505060405180910390a450505050505050505050505050565b6001600860008373ffffffffffffffffffffffffffffffffffffffff1673ffffffffffffffffffffffffffffffffffffffff16815260200190815260200160002060008473ffffffffffffffffffffffffffffffffffffffff1673ffffffffffffffffffffffffffffffffffffffff16815260200190815260200160002060006101000a81548160ff0219169083151502179055505050565b6000600860008373ffffffffffffffffffffffffffffffffffffffff1673ffffffffffffffffffffffffffffffffffffffff16815260200190815260200160002060008473ffffffffffffffffffffffffffffffffffffffff1673ffffffffffffffffffffffffffffffffffffffff16815260200190815260200160002060006101000a81548160ff0219169083151502179055505050565b600080600060066000858152602001908152602001600020549250610f916001610f8387610883565b61147890919063ffffffff16565b9150600460008673ffffffffffffffffffffffffffffffffffffffff1673ffffffffffffffffffffffffffffffffffffffff16815260200190815260200160002082815481101515610fdf57fe5b906000526020600020900154905060006005600086815260200190815260200160002060006101000a81548173ffffffffffffffffffffffffffffffffffffffff021916908373ffffffffffffffffffffffffffffffffffffffff16021790555080600460008773ffffffffffffffffffffffffffffffffffffffff1673ffffffffffffffffffffffffffffffffffffffff1681526020019081526020016000208481548110151561108d57fe5b9060005260206000209001819055506000600460008773ffffffffffffffffffffffffffffffffffffffff1673ffffffffffffffffffffffffffffffffffffffff168152602001908152602001600020838154811015156110ea57fe5b906000526020600020900181905550600460008673ffffffffffffffffffffffffffffffffffffffff1673ffffffffffffffffffffffffffffffffffffffff16815260200190815260200160002080548091906001900361114b91906114af565b506000600460008773ffffffffffffffffffffffffffffffffffffffff1673ffffffffffffffffffffffffffffffffffffffff1681526020019081526020016000208054905014156111e357600460008673ffffffffffffffffffffffffffffffffffffffff1673ffffffffffffffffffffffffffffffffffffffff16815260200190815260200160002060006111e291906114db565b5b6000600660008681526020019081526020016000208190555082600660008381526020019081526020016000208190555061122a600160035461147890919063ffffffff16565b6003819055505050505050565b8173ffffffffffffffffffffffffffffffffffffffff1661125782610846565b73ffffffffffffffffffffffffffffffffffffffff161480156112c4575060006009600083815260200190815260200160002060009054906101000a900473ffffffffffffffffffffffffffffffffffffffff1673ffffffffffffffffffffffffffffffffffffffff1614155b156113635760006009600083815260200190815260200160002060006101000a81548173ffffffffffffffffffffffffffffffffffffffff021916908373ffffffffffffffffffffffffffffffffffffffff1602179055508060008373ffffffffffffffffffffffffffffffffffffffff167f8c5be1e5ebec7d5bd14f71427d1e84f3dd0314c0f7b2291e5b200ac8c7c3b92560405160405180910390a45b5050565b6000826005600084815260200190815260200160002060006101000a81548173ffffffffffffffffffffffffffffffffffffffff021916908373ffffffffffffffffffffffffffffffffffffffff1602179055506113c483610883565b9050600460008473ffffffffffffffffffffffffffffffffffffffff1673ffffffffffffffffffffffffffffffffffffffff168152602001908152602001600020805480600101828161141791906114fc565b91600052602060002090016000849091909150555080600660008481526020019081526020016000208190555061145a600160035461149190919063ffffffff16565b600381905550505050565b600080823b905060008111915050919050565b600082821115151561148657fe5b818303905092915050565b60008082840190508381101515156114a557fe5b8091505092915050565b8154818355818115116114d6578183600052602060002091820191016114d59190611528565b5b505050565b50805460008255906000526020600020908101906114f99190611528565b50565b815481835581811511611523578183600052602060002091820191016115229190611528565b5b505050565b61154a91905b8082111561154657600081600090555060010161152e565b5090565b905600a165627a7a72305820eca598627cf87d99d08130911063b9453fe78eb56c5de091e277a76d1d10eb910029",
  "source": "pragma solidity ^0.4.18;\n\nimport 'zeppelin-solidity/contracts/math/SafeMath.sol';\n\nimport './AssetRegistryStorage.sol';\n\nimport './IERC721Base.sol';\n\nimport './IERC721Receiver.sol';\n\ninterface ERC165 {\n  function supportsInterface(bytes4 interfaceID) public view returns (bool);\n}\n\ncontract ERC721Base is AssetRegistryStorage, IERC721Base, ERC165 {\n  using SafeMath for uint256;\n\n  //\n  // Global Getters\n  //\n\n  /**\n   * @dev Gets the total amount of assets stored by the contract\n   * @return uint256 representing the total amount of assets\n   */\n  function totalSupply() public view returns (uint256) {\n    return _count;\n  }\n\n  //\n  // Asset-centric getter functions\n  //\n\n  /**\n   * @dev Queries what address owns an asset. This method does not throw.\n   * In order to check if the asset exists, use the `exists` function or check if the\n   * return value of this call is `0`.\n   * @return uint256 the assetId\n   */\n  function ownerOf(uint256 assetId) public view returns (address) {\n    return _holderOf[assetId];\n  }\n\n  //\n  // Holder-centric getter functions\n  //\n  /**\n   * @dev Gets the balance of the specified address\n   * @param owner address to query the balance of\n   * @return uint256 representing the amount owned by the passed address\n   */\n  function balanceOf(address owner) public view returns (uint256) {\n    return _assetsOf[owner].length;\n  }\n\n  //\n  // Authorization getters\n  //\n\n  /**\n   * @dev Query whether an address has been authorized to move any assets on behalf of someone else\n   * @param operator the address that might be authorized\n   * @param assetHolder the address that provided the authorization\n   * @return bool true if the operator has been authorized to move any assets\n   */\n  function isApprovedForAll(address operator, address assetHolder)\n    public view returns (bool)\n  {\n    return _operators[assetHolder][operator];\n  }\n\n  /**\n   * @dev Query what address has been particularly authorized to move an asset\n   * @param assetId the asset to be queried for\n   * @return bool true if the asset has been approved by the holder\n   */\n  function getApprovedAddress(uint256 assetId) public view returns (address) {\n    return _approval[assetId];\n  }\n\n  /**\n   * @dev Query if an operator can move an asset.\n   * @param operator the address that might be authorized\n   * @param assetId the asset that has been `approved` for transfer\n   * @return bool true if the asset has been approved by the holder\n   */\n  function isAuthorized(address operator, uint256 assetId)\n    public view returns (bool)\n  {\n    require(operator != 0);\n    address owner = ownerOf(assetId);\n    if (operator == owner) {\n      return true;\n    }\n    return isApprovedForAll(operator, owner) || getApprovedAddress(assetId) == operator;\n  }\n\n  //\n  // Authorization\n  //\n\n  /**\n   * @dev Authorize a third party operator to manage (send) msg.sender's asset\n   * @param operator address to be approved\n   * @param authorized bool set to true to authorize, false to withdraw authorization\n   */\n  function setApprovalForAll(address operator, bool authorized) public {\n    if (authorized) {\n      require(!isApprovedForAll(operator, msg.sender));\n      _addAuthorization(operator, msg.sender);\n    } else {\n      require(isApprovedForAll(operator, msg.sender));\n      _clearAuthorization(operator, msg.sender);\n    }\n    ApprovalForAll(operator, msg.sender, authorized);\n  }\n\n  /**\n   * @dev Authorize a third party operator to manage one particular asset\n   * @param operator address to be approved\n   * @param assetId asset to approve\n   */\n  function approve(address operator, uint256 assetId) public {\n    address holder = ownerOf(assetId);\n    require(operator != holder);\n    if (getApprovedAddress(assetId) != operator) {\n      _approval[assetId] = operator;\n      Approval(holder, operator, assetId);\n    }\n  }\n\n  function _addAuthorization(address operator, address holder) private {\n    _operators[holder][operator] = true;\n  }\n\n  function _clearAuthorization(address operator, address holder) private {\n    _operators[holder][operator] = false;\n  }\n\n  //\n  // Internal Operations\n  //\n\n  function _addAssetTo(address to, uint256 assetId) internal {\n    _holderOf[assetId] = to;\n\n    uint256 length = balanceOf(to);\n\n    _assetsOf[to].push(assetId);\n\n    _indexOfAsset[assetId] = length;\n\n    _count = _count.add(1);\n  }\n\n  function _removeAssetFrom(address from, uint256 assetId) internal {\n    uint256 assetIndex = _indexOfAsset[assetId];\n    uint256 lastAssetIndex = balanceOf(from).sub(1);\n    uint256 lastAssetId = _assetsOf[from][lastAssetIndex];\n\n    _holderOf[assetId] = 0;\n\n    // Insert the last asset into the position previously occupied by the asset to be removed\n    _assetsOf[from][assetIndex] = lastAssetId;\n\n    // Resize the array\n    _assetsOf[from][lastAssetIndex] = 0;\n    _assetsOf[from].length--;\n\n    // Remove the array if no more assets are owned to prevent pollution\n    if (_assetsOf[from].length == 0) {\n      delete _assetsOf[from];\n    }\n\n    // Update the index of positions for the asset\n    _indexOfAsset[assetId] = 0;\n    _indexOfAsset[lastAssetId] = assetIndex;\n\n    _count = _count.sub(1);\n  }\n\n  function _clearApproval(address holder, uint256 assetId) internal {\n    if (ownerOf(assetId) == holder && _approval[assetId] != 0) {\n      _approval[assetId] = 0;\n      Approval(holder, 0, assetId);\n    }\n  }\n\n  //\n  // Supply-altering functions\n  //\n\n  function _generate(uint256 assetId, address beneficiary) internal {\n    require(_holderOf[assetId] == 0);\n\n    _addAssetTo(beneficiary, assetId);\n\n    Transfer(0, beneficiary, assetId, msg.sender, '');\n  }\n\n  function _destroy(uint256 assetId) internal {\n    address holder = _holderOf[assetId];\n    require(holder != 0);\n\n    _removeAssetFrom(holder, assetId);\n\n    Transfer(holder, 0, assetId, msg.sender, '');\n  }\n\n  //\n  // Transaction related operations\n  //\n\n  modifier onlyHolder(uint256 assetId) {\n    require(_holderOf[assetId] == msg.sender);\n    _;\n  }\n\n  modifier onlyAuthorized(uint256 assetId) {\n    require(isAuthorized(msg.sender, assetId));\n    _;\n  }\n\n  modifier isCurrentOwner(address from, uint256 assetId) {\n    require(_holderOf[assetId] == from);\n    _;\n  }\n\n  modifier isDestinataryDefined(address destinatary) {\n    require(destinatary != 0);\n    _;\n  }\n\n  modifier destinataryIsNotHolder(uint256 assetId, address to) {\n    require(_holderOf[assetId] != to);\n    _;\n  }\n\n  /**\n   * @dev Alias of `safeTransferFrom(from, to, assetId, '')`\n   *\n   * @param from address that currently owns an asset\n   * @param to address to receive the ownership of the asset\n   * @param assetId uint256 ID of the asset to be transferred\n   */\n  function safeTransferFrom(address from, address to, uint256 assetId) public {\n    return _doTransferFrom(from, to, assetId, '', msg.sender, true);\n  }\n\n  /**\n   * @dev Securely transfers the ownership of a given asset from one address to\n   * another address, calling the method `onNFTReceived` on the target address if\n   * there's code associated with it\n   *\n   * @param from address that currently owns an asset\n   * @param to address to receive the ownership of the asset\n   * @param assetId uint256 ID of the asset to be transferred\n   * @param userData bytes arbitrary user information to attach to this transfer\n   */\n  function safeTransferFrom(address from, address to, uint256 assetId, bytes userData) public {\n    return _doTransferFrom(from, to, assetId, userData, msg.sender, true);\n  }\n\n  /**\n   * @dev Transfers the ownership of a given asset from one address to another address\n   * Warning! This function does not attempt to verify that the target address can send\n   * tokens.\n   *\n   * @param from address sending the asset\n   * @param to address to receive the ownership of the asset\n   * @param assetId uint256 ID of the asset to be transferred\n   */\n  function transferFrom(address from, address to, uint256 assetId) public {\n    return _doTransferFrom(from, to, assetId, '', msg.sender, false);\n  }\n\n  function _doTransferFrom(\n    address from,\n    address to,\n    uint256 assetId,\n    bytes userData,\n    address operator,\n    bool doCheck\n  )\n    isDestinataryDefined(to)\n    destinataryIsNotHolder(assetId, to)\n    isCurrentOwner(from, assetId)\n    onlyAuthorized(assetId)\n    internal\n  {\n    address holder = _holderOf[assetId];\n    _removeAssetFrom(holder, assetId);\n    _clearApproval(holder, assetId);\n    _addAssetTo(to, assetId);\n\n    if (doCheck && _isContract(to)) {\n      IERC721Receiver(to).onERC721Received.gas(50000)(\n        assetId, holder, userData\n      );\n    }\n\n    Transfer(holder, to, assetId, operator, userData);\n  }\n\n  /**\n   * @dev Returns `true` if the contract implements `interfaceID` and `interfaceID` is not 0xffffffff, `false` otherwise\n   * @param  _interfaceID The interface identifier, as specified in ERC-165\n   */\n  function supportsInterface(bytes4 _interfaceID) public view returns (bool) {\n\n    if (_interfaceID == 0xffffffff) {\n      return false;\n    }\n    return _interfaceID == 0x01ffc9a7 || _interfaceID == 0x7c0633c6;\n  }\n\n  //\n  // Utilities\n  //\n\n  function _isContract(address addr) internal view returns (bool) {\n    uint size;\n    assembly { size := extcodesize(addr) }\n    return size > 0;\n  }\n}\n",
  "sourcePath": "erc821/contracts/ERC721Base.sol",
  "compiler": {
    "name": "solc",
    "version": "0.4.19+commit.c4cbbb05.Emscripten.clang"
  },
  "schemaVersion": "2.0.0",
  "updatedAt": "2018-03-12T23:30:55.716Z"
}