{
  "contractName": "Marketplace",
  "abi": [
    {
      "constant": true,
      "inputs": [
        {
          "name": "",
          "type": "uint256"
        }
      ],
      "name": "tokensOnSale",
      "outputs": [
        {
          "name": "",
          "type": "uint256"
        }
      ],
      "payable": false,
      "stateMutability": "view",
      "type": "function"
    },
    {
      "constant": true,
      "inputs": [],
      "name": "numOrders",
      "outputs": [
        {
          "name": "",
          "type": "uint256"
        }
      ],
      "payable": false,
      "stateMutability": "view",
      "type": "function"
    },
    {
      "constant": true,
      "inputs": [
        {
          "name": "",
          "type": "uint256"
        }
      ],
      "name": "sellOrders",
      "outputs": [
        {
          "name": "price",
          "type": "uint256"
        },
        {
          "name": "seller",
          "type": "address"
        },
        {
          "name": "timestamp",
          "type": "uint256"
        },
        {
          "name": "exists",
          "type": "bool"
        }
      ],
      "payable": false,
      "stateMutability": "view",
      "type": "function"
    },
    {
      "constant": true,
      "inputs": [],
      "name": "tokenContract",
      "outputs": [
        {
          "name": "",
          "type": "address"
        }
      ],
      "payable": false,
      "stateMutability": "view",
      "type": "function"
    },
    {
      "constant": true,
      "inputs": [
        {
          "name": "",
          "type": "uint256"
        }
      ],
      "name": "positionOfToken",
      "outputs": [
        {
          "name": "",
          "type": "uint256"
        }
      ],
      "payable": false,
      "stateMutability": "view",
      "type": "function"
    },
    {
      "inputs": [
        {
          "name": "_tokenAddress",
          "type": "address"
        }
      ],
      "payable": false,
      "stateMutability": "nonpayable",
      "type": "constructor"
    },
    {
      "anonymous": false,
      "inputs": [
        {
          "indexed": false,
          "name": "owner",
          "type": "address"
        },
        {
          "indexed": false,
          "name": "assetId",
          "type": "uint256"
        },
        {
          "indexed": false,
          "name": "price",
          "type": "uint256"
        }
      ],
      "name": "SellOrder",
      "type": "event"
    },
    {
      "anonymous": false,
      "inputs": [
        {
          "indexed": false,
          "name": "assetId",
          "type": "uint256"
        },
        {
          "indexed": false,
          "name": "buyer",
          "type": "address"
        },
        {
          "indexed": false,
          "name": "price",
          "type": "uint256"
        }
      ],
      "name": "Bought",
      "type": "event"
    },
    {
      "anonymous": false,
      "inputs": [
        {
          "indexed": false,
          "name": "owner",
          "type": "address"
        },
        {
          "indexed": false,
          "name": "assetId",
          "type": "uint256"
        }
      ],
      "name": "Canceled",
      "type": "event"
    },
    {
      "constant": false,
      "inputs": [
        {
          "name": "_owner",
          "type": "address"
        },
        {
          "name": "_assetId",
          "type": "uint256"
        },
        {
          "name": "_amount",
          "type": "uint256"
        }
      ],
      "name": "sell",
      "outputs": [],
      "payable": false,
      "stateMutability": "nonpayable",
      "type": "function"
    },
    {
      "constant": false,
      "inputs": [
        {
          "name": "_assetId",
          "type": "uint256"
        }
      ],
      "name": "buy",
      "outputs": [],
      "payable": true,
      "stateMutability": "payable",
      "type": "function"
    },
    {
      "constant": false,
      "inputs": [
        {
          "name": "_assetId",
          "type": "uint256"
        }
      ],
      "name": "cancel",
      "outputs": [],
      "payable": false,
      "stateMutability": "nonpayable",
      "type": "function"
    },
    {
      "constant": true,
      "inputs": [],
      "name": "getAlltokensOnSale",
      "outputs": [
        {
          "name": "",
          "type": "uint256[]"
        }
      ],
      "payable": false,
      "stateMutability": "view",
      "type": "function"
    }
  ],
  "bytecode": "0x6060604052341561000f57600080fd5b604051602080610e688339810160405280805190602001909190505080600460006101000a81548173ffffffffffffffffffffffffffffffffffffffff021916908373ffffffffffffffffffffffffffffffffffffffff16021790555050610dec8061007c6000396000f300606060405260043610610099576000357c0100000000000000000000000000000000000000000000000000000000900463ffffffff168063308b4c971461009e57806340e58ee5146100d557806345d53788146100f85780634a8393f31461012157806355a373d61461019d57806362eb66b2146101f25780636a27246214610229578063d96a094a14610274578063dd8ae38b1461028c575b600080fd5b34156100a957600080fd5b6100bf60048080359060200190919050506102f6565b6040518082815260200191505060405180910390f35b34156100e057600080fd5b6100f6600480803590602001909190505061031a565b005b341561010357600080fd5b61010b610584565b6040518082815260200191505060405180910390f35b341561012c57600080fd5b610142600480803590602001909190505061058a565b604051808581526020018473ffffffffffffffffffffffffffffffffffffffff1673ffffffffffffffffffffffffffffffffffffffff1681526020018381526020018215151515815260200194505050505060405180910390f35b34156101a857600080fd5b6101b06105e7565b604051808273ffffffffffffffffffffffffffffffffffffffff1673ffffffffffffffffffffffffffffffffffffffff16815260200191505060405180910390f35b34156101fd57600080fd5b610213600480803590602001909190505061060d565b6040518082815260200191505060405180910390f35b341561023457600080fd5b610272600480803573ffffffffffffffffffffffffffffffffffffffff16906020019091908035906020019091908035906020019091905050610625565b005b61028a6004808035906020019091905050610961565b005b341561029757600080fd5b61029f610c1a565b6040518080602001828103825283818151815260200191508051906020019060200280838360005b838110156102e25780820151818401526020810190506102c7565b505050509050019250505060405180910390f35b60038181548110151561030557fe5b90600052602060002090016000915090505481565b600115156001600083815260200190815260200160002060030160009054906101000a900460ff16151514151561035057600080fd5b3373ffffffffffffffffffffffffffffffffffffffff166001600083815260200190815260200160002060010160009054906101000a900473ffffffffffffffffffffffffffffffffffffffff1673ffffffffffffffffffffffffffffffffffffffff161415156103c057600080fd5b60006001600083815260200190815260200160002060030160006101000a81548160ff02191690831515021790555060008081548092919060019003919050555061040a81610c78565b600460009054906101000a900473ffffffffffffffffffffffffffffffffffffffff1673ffffffffffffffffffffffffffffffffffffffff166323b872dd3033846040518463ffffffff167c0100000000000000000000000000000000000000000000000000000000028152600401808473ffffffffffffffffffffffffffffffffffffffff1673ffffffffffffffffffffffffffffffffffffffff1681526020018373ffffffffffffffffffffffffffffffffffffffff1673ffffffffffffffffffffffffffffffffffffffff1681526020018281526020019350505050600060405180830381600087803b151561050257600080fd5b6102c65a03f1151561051357600080fd5b5050507ff3a6ef5718c05d9183af076f5753197b68b04552a763c34796637d6134bdd0f23382604051808373ffffffffffffffffffffffffffffffffffffffff1673ffffffffffffffffffffffffffffffffffffffff1681526020018281526020019250505060405180910390a150565b60005481565b60016020528060005260406000206000915090508060000154908060010160009054906101000a900473ffffffffffffffffffffffffffffffffffffffff16908060020154908060030160009054906101000a900460ff16905084565b600460009054906101000a900473ffffffffffffffffffffffffffffffffffffffff1681565b60026020528060005260406000206000915090505481565b600460009054906101000a900473ffffffffffffffffffffffffffffffffffffffff1673ffffffffffffffffffffffffffffffffffffffff163373ffffffffffffffffffffffffffffffffffffffff1614151561068157600080fd5b600015156001600084815260200190815260200160002060030160009054906101000a900460ff1615151415156106b757600080fd5b6080604051908101604052808281526020018473ffffffffffffffffffffffffffffffffffffffff16815260200142815260200160011515815250600160008481526020019081526020016000206000820151816000015560208201518160010160006101000a81548173ffffffffffffffffffffffffffffffffffffffff021916908373ffffffffffffffffffffffffffffffffffffffff1602179055506040820151816002015560608201518160030160006101000a81548160ff0219169083151502179055509050506000808154809291906001019190505550600380548060010182816107a89190610d2f565b9160005260206000209001600084909190915055506001600380549050036002600084815260200190815260200160002081905550600460009054906101000a900473ffffffffffffffffffffffffffffffffffffffff1673ffffffffffffffffffffffffffffffffffffffff166323b872dd8430856040518463ffffffff167c0100000000000000000000000000000000000000000000000000000000028152600401808473ffffffffffffffffffffffffffffffffffffffff1673ffffffffffffffffffffffffffffffffffffffff1681526020018373ffffffffffffffffffffffffffffffffffffffff1673ffffffffffffffffffffffffffffffffffffffff1681526020018281526020019350505050600060405180830381600087803b15156108d557600080fd5b6102c65a03f115156108e657600080fd5b5050507fcbc0df49dd88ec0ba5b87a3c77ed66af6480b175df0f21649805ed6201c56145838383604051808473ffffffffffffffffffffffffffffffffffffffff1673ffffffffffffffffffffffffffffffffffffffff168152602001838152602001828152602001935050505060405180910390a1505050565b6000600115156001600084815260200190815260200160002060030160009054906101000a900460ff16151514151561099957600080fd5b600160008381526020019081526020016000206000015434101515156109be57600080fd5b60006001600084815260200190815260200160002060030160006101000a81548160ff021916908315150217905550600080815480929190600190039190505550610a0882610c78565b600460009054906101000a900473ffffffffffffffffffffffffffffffffffffffff1673ffffffffffffffffffffffffffffffffffffffff166323b872dd3033856040518463ffffffff167c0100000000000000000000000000000000000000000000000000000000028152600401808473ffffffffffffffffffffffffffffffffffffffff1673ffffffffffffffffffffffffffffffffffffffff1681526020018373ffffffffffffffffffffffffffffffffffffffff1673ffffffffffffffffffffffffffffffffffffffff1681526020018281526020019350505050600060405180830381600087803b1515610b0057600080fd5b6102c65a03f11515610b1157600080fd5b505050600160008381526020019081526020016000206000015490506001600083815260200190815260200160002060010160009054906101000a900473ffffffffffffffffffffffffffffffffffffffff1673ffffffffffffffffffffffffffffffffffffffff166108fc829081150290604051600060405180830381858888f193505050501515610ba357600080fd5b7fd2728f908c7e0feb83c6278798370fcb86b62f236c9dbf1a3f541096c2159040823334604051808481526020018373ffffffffffffffffffffffffffffffffffffffff1673ffffffffffffffffffffffffffffffffffffffff168152602001828152602001935050505060405180910390a15050565b610c22610d5b565b6003805480602002602001604051908101604052809291908181526020018280548015610c6e57602002820191906000526020600020905b815481526020019060010190808311610c5a575b5050505050905090565b6000806000600380549050925060026000858152602001908152602001600020549150600360018403815481101515610cad57fe5b906000526020600020900154905080600383815481101515610ccb57fe5b906000526020600020900181905550816002600083815260200190815260200160002081905550600360018403815481101515610d0457fe5b9060005260206000209001600090556003805480919060019003610d289190610d6f565b5050505050565b815481835581811511610d5657818360005260206000209182019101610d559190610d9b565b5b505050565b602060405190810160405280600081525090565b815481835581811511610d9657818360005260206000209182019101610d959190610d9b565b5b505050565b610dbd91905b80821115610db9576000816000905550600101610da1565b5090565b905600a165627a7a72305820725752e865ceaa9033610ad917cc67a6f435f309d651b6933354a435bdfa80830029",
  "source": "pragma solidity ^0.4.17;\n\nimport './TimewalkLand.sol';\n\ncontract Marketplace {\n    \n    modifier onlyTokenContract() {\n        require(msg.sender == address(tokenContract));\n        _;\n    }\n    \n    struct Order {\n        uint price;\n        address seller;\n        uint timestamp;\n        bool exists;\n    }\n    \n    event SellOrder(address owner, uint assetId, uint price);\n    event Bought(uint assetId, address buyer, uint price);\n    event Canceled(address owner, uint assetId);\n    \n    uint public numOrders;\n\n    mapping (uint => Order) public sellOrders;\n    mapping(uint => uint) public positionOfToken;\n    \n    uint[] public tokensOnSale;\n    \n    TimewalkLand public tokenContract;\n    \n    function Marketplace(address _tokenAddress) public {\n        tokenContract = TimewalkLand(_tokenAddress);\n    }\n\n    function sell(address _owner, uint _assetId, uint _amount) public onlyTokenContract {\n        require(sellOrders[_assetId].exists == false);\n        \n        sellOrders[_assetId] = Order({\n           price: _amount,\n           seller: _owner,\n           timestamp: now,\n           exists: true\n        });\n        \n        numOrders++;\n        \n        // set for iterating\n        tokensOnSale.push(_assetId);\n        positionOfToken[_assetId] = tokensOnSale.length - 1;\n        \n        //transfer ownership \n        tokenContract.transferFrom(_owner, this, _assetId);\n        \n        //Fire an sell event\n        SellOrder(_owner, _assetId, _amount);\n    }\n    \n    function buy(uint _assetId) public payable {\n        require(sellOrders[_assetId].exists == true);\n        require(msg.value >= sellOrders[_assetId].price);\n        \n        sellOrders[_assetId].exists = false;\n        \n        numOrders--;\n        \n        //delete stuff for iterating \n        removeOrder(_assetId);\n        \n        //transfer ownership \n        tokenContract.transferFrom(this, msg.sender, _assetId);\n        \n        // transfer money to seller\n        uint price = sellOrders[_assetId].price;\n            \n        sellOrders[_assetId].seller.transfer(price);\n                \n        //fire and event\n        Bought(_assetId, msg.sender, msg.value);\n    }\n    \n    function cancel(uint _assetId) public {\n        require(sellOrders[_assetId].exists == true);\n        require(sellOrders[_assetId].seller == msg.sender);\n        \n        sellOrders[_assetId].exists = false;\n        \n        numOrders--;\n        \n        //delete stuff for iterating \n        removeOrder(_assetId);\n        \n        tokenContract.transferFrom(this, msg.sender, _assetId);\n        \n        //fire and event\n        Canceled(msg.sender, _assetId);\n    }\n    \n    function removeOrder(uint _assetId) internal {\n        uint length = tokensOnSale.length;\n        uint index = positionOfToken[_assetId];\n        uint lastOne = tokensOnSale[length - 1];\n\n        tokensOnSale[index] = lastOne;\n        positionOfToken[lastOne] = index;\n\n        delete tokensOnSale[length - 1];\n        tokensOnSale.length--;\n    }\n    \n    function getAlltokensOnSale() public view returns(uint[]) {\n        return tokensOnSale;\n    }\n    \n}",
  "sourcePath": "/Users/michaelreinstein/wwwroot/land.timewalk.org/contracts/Marketplace.sol",
  "compiler": {
    "name": "solc",
    "version": "0.4.19+commit.c4cbbb05.Emscripten.clang"
  },
  "schemaVersion": "2.0.0",
  "updatedAt": "2018-04-25T16:33:34.644Z"
}