{
  "contractName": "Marketplace",
  "abi": [
    {
      "constant": true,
      "inputs": [
        {
          "name": "",
          "type": "uint256"
        }
      ],
      "name": "tokensOnSale",
      "outputs": [
        {
          "name": "",
          "type": "uint256"
        }
      ],
      "payable": false,
      "stateMutability": "view",
      "type": "function"
    },
    {
      "constant": true,
      "inputs": [],
      "name": "numOrders",
      "outputs": [
        {
          "name": "",
          "type": "uint256"
        }
      ],
      "payable": false,
      "stateMutability": "view",
      "type": "function"
    },
    {
      "constant": true,
      "inputs": [
        {
          "name": "",
          "type": "uint256"
        }
      ],
      "name": "sellOrders",
      "outputs": [
        {
          "name": "price",
          "type": "uint256"
        },
        {
          "name": "seller",
          "type": "address"
        },
        {
          "name": "timestamp",
          "type": "uint256"
        },
        {
          "name": "exists",
          "type": "bool"
        }
      ],
      "payable": false,
      "stateMutability": "view",
      "type": "function"
    },
    {
      "constant": true,
      "inputs": [],
      "name": "tokenContract",
      "outputs": [
        {
          "name": "",
          "type": "address"
        }
      ],
      "payable": false,
      "stateMutability": "view",
      "type": "function"
    },
    {
      "constant": true,
      "inputs": [
        {
          "name": "",
          "type": "uint256"
        }
      ],
      "name": "positionOfToken",
      "outputs": [
        {
          "name": "",
          "type": "uint256"
        }
      ],
      "payable": false,
      "stateMutability": "view",
      "type": "function"
    },
    {
      "inputs": [
        {
          "name": "_tokenAddress",
          "type": "address"
        }
      ],
      "payable": false,
      "stateMutability": "nonpayable",
      "type": "constructor"
    },
    {
      "anonymous": false,
      "inputs": [
        {
          "indexed": false,
          "name": "owner",
          "type": "address"
        },
        {
          "indexed": false,
          "name": "assetId",
          "type": "uint256"
        },
        {
          "indexed": false,
          "name": "price",
          "type": "uint256"
        }
      ],
      "name": "SellOrder",
      "type": "event"
    },
    {
      "anonymous": false,
      "inputs": [
        {
          "indexed": false,
          "name": "assetId",
          "type": "uint256"
        },
        {
          "indexed": false,
          "name": "buyer",
          "type": "address"
        },
        {
          "indexed": false,
          "name": "price",
          "type": "uint256"
        }
      ],
      "name": "Bought",
      "type": "event"
    },
    {
      "anonymous": false,
      "inputs": [
        {
          "indexed": false,
          "name": "owner",
          "type": "address"
        },
        {
          "indexed": false,
          "name": "assetId",
          "type": "uint256"
        }
      ],
      "name": "Canceled",
      "type": "event"
    },
    {
      "constant": false,
      "inputs": [
        {
          "name": "_owner",
          "type": "address"
        },
        {
          "name": "_assetId",
          "type": "uint256"
        },
        {
          "name": "_amount",
          "type": "uint256"
        }
      ],
      "name": "sell",
      "outputs": [],
      "payable": false,
      "stateMutability": "nonpayable",
      "type": "function"
    },
    {
      "constant": false,
      "inputs": [
        {
          "name": "_assetId",
          "type": "uint256"
        }
      ],
      "name": "buy",
      "outputs": [],
      "payable": true,
      "stateMutability": "payable",
      "type": "function"
    },
    {
      "constant": false,
      "inputs": [
        {
          "name": "_assetId",
          "type": "uint256"
        }
      ],
      "name": "cancel",
      "outputs": [],
      "payable": false,
      "stateMutability": "nonpayable",
      "type": "function"
    },
    {
      "constant": true,
      "inputs": [],
      "name": "getAlltokensOnSale",
      "outputs": [
        {
          "name": "",
          "type": "uint256[]"
        }
      ],
      "payable": false,
      "stateMutability": "view",
      "type": "function"
    }
  ],
  "bytecode": "0x608060405234801561001057600080fd5b50604051602080610e818339810180604052810190808051906020019092919050505080600460006101000a81548173ffffffffffffffffffffffffffffffffffffffff021916908373ffffffffffffffffffffffffffffffffffffffff16021790555050610dfd806100846000396000f300608060405260043610610099576000357c0100000000000000000000000000000000000000000000000000000000900463ffffffff168063308b4c971461009e57806340e58ee5146100df57806345d537881461010c5780634a8393f31461013757806355a373d6146101bd57806362eb66b2146102145780636a27246214610255578063d96a094a146102ac578063dd8ae38b146102cc575b600080fd5b3480156100aa57600080fd5b506100c960048036038101908080359060200190929190505050610338565b6040518082815260200191505060405180910390f35b3480156100eb57600080fd5b5061010a6004803603810190808035906020019092919050505061035b565b005b34801561011857600080fd5b506101216105ca565b6040518082815260200191505060405180910390f35b34801561014357600080fd5b50610162600480360381019080803590602001909291905050506105d0565b604051808581526020018473ffffffffffffffffffffffffffffffffffffffff1673ffffffffffffffffffffffffffffffffffffffff1681526020018381526020018215151515815260200194505050505060405180910390f35b3480156101c957600080fd5b506101d261062d565b604051808273ffffffffffffffffffffffffffffffffffffffff1673ffffffffffffffffffffffffffffffffffffffff16815260200191505060405180910390f35b34801561022057600080fd5b5061023f60048036038101908080359060200190929190505050610653565b6040518082815260200191505060405180910390f35b34801561026157600080fd5b506102aa600480360381019080803573ffffffffffffffffffffffffffffffffffffffff169060200190929190803590602001909291908035906020019092919050505061066b565b005b6102ca600480360381019080803590602001909291905050506109af565b005b3480156102d857600080fd5b506102e1610c74565b6040518080602001828103825283818151815260200191508051906020019060200280838360005b83811015610324578082015181840152602081019050610309565b505050509050019250505060405180910390f35b60038181548110151561034757fe5b906000526020600020016000915090505481565b600115156001600083815260200190815260200160002060030160009054906101000a900460ff16151514151561039157600080fd5b3373ffffffffffffffffffffffffffffffffffffffff166001600083815260200190815260200160002060010160009054906101000a900473ffffffffffffffffffffffffffffffffffffffff1673ffffffffffffffffffffffffffffffffffffffff1614151561040157600080fd5b60006001600083815260200190815260200160002060030160006101000a81548160ff02191690831515021790555060008081548092919060019003919050555061044b81610ccc565b600460009054906101000a900473ffffffffffffffffffffffffffffffffffffffff1673ffffffffffffffffffffffffffffffffffffffff166323b872dd3033846040518463ffffffff167c0100000000000000000000000000000000000000000000000000000000028152600401808473ffffffffffffffffffffffffffffffffffffffff1673ffffffffffffffffffffffffffffffffffffffff1681526020018373ffffffffffffffffffffffffffffffffffffffff1673ffffffffffffffffffffffffffffffffffffffff1681526020018281526020019350505050600060405180830381600087803b15801561054457600080fd5b505af1158015610558573d6000803e3d6000fd5b505050507ff3a6ef5718c05d9183af076f5753197b68b04552a763c34796637d6134bdd0f23382604051808373ffffffffffffffffffffffffffffffffffffffff1673ffffffffffffffffffffffffffffffffffffffff1681526020018281526020019250505060405180910390a150565b60005481565b60016020528060005260406000206000915090508060000154908060010160009054906101000a900473ffffffffffffffffffffffffffffffffffffffff16908060020154908060030160009054906101000a900460ff16905084565b600460009054906101000a900473ffffffffffffffffffffffffffffffffffffffff1681565b60026020528060005260406000206000915090505481565b600460009054906101000a900473ffffffffffffffffffffffffffffffffffffffff1673ffffffffffffffffffffffffffffffffffffffff163373ffffffffffffffffffffffffffffffffffffffff161415156106c757600080fd5b600015156001600084815260200190815260200160002060030160009054906101000a900460ff1615151415156106fd57600080fd5b6080604051908101604052808281526020018473ffffffffffffffffffffffffffffffffffffffff16815260200142815260200160011515815250600160008481526020019081526020016000206000820151816000015560208201518160010160006101000a81548173ffffffffffffffffffffffffffffffffffffffff021916908373ffffffffffffffffffffffffffffffffffffffff1602179055506040820151816002015560608201518160030160006101000a81548160ff021916908315150217905550905050600080815480929190600101919050555060038290806001815401808255809150509060018203906000526020600020016000909192909190915055506001600380549050036002600084815260200190815260200160002081905550600460009054906101000a900473ffffffffffffffffffffffffffffffffffffffff1673ffffffffffffffffffffffffffffffffffffffff166323b872dd8430856040518463ffffffff167c0100000000000000000000000000000000000000000000000000000000028152600401808473ffffffffffffffffffffffffffffffffffffffff1673ffffffffffffffffffffffffffffffffffffffff1681526020018373ffffffffffffffffffffffffffffffffffffffff1673ffffffffffffffffffffffffffffffffffffffff1681526020018281526020019350505050600060405180830381600087803b15801561091f57600080fd5b505af1158015610933573d6000803e3d6000fd5b505050507fcbc0df49dd88ec0ba5b87a3c77ed66af6480b175df0f21649805ed6201c56145838383604051808473ffffffffffffffffffffffffffffffffffffffff1673ffffffffffffffffffffffffffffffffffffffff168152602001838152602001828152602001935050505060405180910390a1505050565b6000600115156001600084815260200190815260200160002060030160009054906101000a900460ff1615151415156109e757600080fd5b60016000838152602001908152602001600020600001543410151515610a0c57600080fd5b60006001600084815260200190815260200160002060030160006101000a81548160ff021916908315150217905550600080815480929190600190039190505550610a5682610ccc565b600460009054906101000a900473ffffffffffffffffffffffffffffffffffffffff1673ffffffffffffffffffffffffffffffffffffffff166323b872dd3033856040518463ffffffff167c0100000000000000000000000000000000000000000000000000000000028152600401808473ffffffffffffffffffffffffffffffffffffffff1673ffffffffffffffffffffffffffffffffffffffff1681526020018373ffffffffffffffffffffffffffffffffffffffff1673ffffffffffffffffffffffffffffffffffffffff1681526020018281526020019350505050600060405180830381600087803b158015610b4f57600080fd5b505af1158015610b63573d6000803e3d6000fd5b50505050600160008381526020019081526020016000206000015490506001600083815260200190815260200160002060010160009054906101000a900473ffffffffffffffffffffffffffffffffffffffff1673ffffffffffffffffffffffffffffffffffffffff166108fc829081150290604051600060405180830381858888f19350505050158015610bfc573d6000803e3d6000fd5b507fd2728f908c7e0feb83c6278798370fcb86b62f236c9dbf1a3f541096c2159040823334604051808481526020018373ffffffffffffffffffffffffffffffffffffffff1673ffffffffffffffffffffffffffffffffffffffff168152602001828152602001935050505060405180910390a15050565b60606003805480602002602001604051908101604052809291908181526020018280548015610cc257602002820191906000526020600020905b815481526020019060010190808311610cae575b5050505050905090565b6000806000600380549050925060026000858152602001908152602001600020549150600360018403815481101515610d0157fe5b9060005260206000200154905080600383815481101515610d1e57fe5b9060005260206000200181905550816002600083815260200190815260200160002081905550600360018403815481101515610d5657fe5b90600052602060002001600090556003805480919060019003610d799190610d80565b5050505050565b815481835581811115610da757818360005260206000209182019101610da69190610dac565b5b505050565b610dce91905b80821115610dca576000816000905550600101610db2565b5090565b905600a165627a7a72305820f1ab5f208c8d2c12f0bba3a357a3728ee8802cc19eced8cf00dfdfa5fee1f37a0029",
  "source": "pragma solidity ^0.4.17;\n\nimport './TimewalkLand.sol';\n\ncontract Marketplace {\n    \n    modifier onlyTokenContract() {\n        require(msg.sender == address(tokenContract));\n        _;\n    }\n    \n    struct Order {\n        uint price;\n        address seller;\n        uint timestamp;\n        bool exists;\n    }\n    \n    event SellOrder(address owner, uint assetId, uint price);\n    event Bought(uint assetId, address buyer, uint price);\n    event Canceled(address owner, uint assetId);\n    \n    uint public numOrders;\n\n    mapping (uint => Order) public sellOrders;\n    mapping(uint => uint) public positionOfToken;\n    \n    uint[] public tokensOnSale;\n    \n    TimewalkLand public tokenContract;\n    \n    constructor(address _tokenAddress) public {\n        tokenContract = TimewalkLand(_tokenAddress);\n    }\n\n    function sell(address _owner, uint _assetId, uint _amount) public onlyTokenContract {\n        require(sellOrders[_assetId].exists == false);\n        \n        sellOrders[_assetId] = Order({\n           price: _amount,\n           seller: _owner,\n           timestamp: now,\n           exists: true\n        });\n        \n        numOrders++;\n        \n        // set for iterating\n        tokensOnSale.push(_assetId);\n        positionOfToken[_assetId] = tokensOnSale.length - 1;\n        \n        //transfer ownership \n        tokenContract.transferFrom(_owner, this, _assetId);\n        \n        //Fire an sell event\n        emit SellOrder(_owner, _assetId, _amount);\n    }\n    \n    function buy(uint _assetId) public payable {\n        require(sellOrders[_assetId].exists == true);\n        require(msg.value >= sellOrders[_assetId].price);\n        \n        sellOrders[_assetId].exists = false;\n        \n        numOrders--;\n        \n        //delete stuff for iterating \n        removeOrder(_assetId);\n        \n        //transfer ownership \n        tokenContract.transferFrom(this, msg.sender, _assetId);\n        \n        // transfer money to seller\n        uint price = sellOrders[_assetId].price;\n            \n        sellOrders[_assetId].seller.transfer(price);\n                \n        //fire and event\n        emit Bought(_assetId, msg.sender, msg.value);\n    }\n    \n    function cancel(uint _assetId) public {\n        require(sellOrders[_assetId].exists == true);\n        require(sellOrders[_assetId].seller == msg.sender);\n        \n        sellOrders[_assetId].exists = false;\n        \n        numOrders--;\n        \n        //delete stuff for iterating \n        removeOrder(_assetId);\n        \n        tokenContract.transferFrom(this, msg.sender, _assetId);\n        \n        //fire and event\n        emit Canceled(msg.sender, _assetId);\n    }\n    \n    function removeOrder(uint _assetId) internal {\n        uint length = tokensOnSale.length;\n        uint index = positionOfToken[_assetId];\n        uint lastOne = tokensOnSale[length - 1];\n\n        tokensOnSale[index] = lastOne;\n        positionOfToken[lastOne] = index;\n\n        delete tokensOnSale[length - 1];\n        tokensOnSale.length--;\n    }\n    \n    function getAlltokensOnSale() public view returns(uint[]) {\n        return tokensOnSale;\n    }\n    \n}",
  "sourcePath": "/Users/michaelreinstein/wwwroot/land.timewalk.org/contracts/Marketplace.sol",
  "compiler": {
    "name": "solc",
    "version": "0.4.23+commit.124ca40d.Emscripten.clang"
  },
  "schemaVersion": "2.0.0",
  "updatedAt": "2018-04-30T18:52:35.439Z"
}