{
  "contractName": "Owned",
  "abi": [
    {
      "constant": true,
      "inputs": [],
      "name": "owner",
      "outputs": [
        {
          "name": "",
          "type": "address"
        }
      ],
      "payable": false,
      "stateMutability": "view",
      "type": "function"
    },
    {
      "inputs": [],
      "payable": false,
      "stateMutability": "nonpayable",
      "type": "constructor"
    },
    {
      "constant": false,
      "inputs": [
        {
          "name": "newOwner",
          "type": "address"
        }
      ],
      "name": "transferOwnership",
      "outputs": [],
      "payable": false,
      "stateMutability": "nonpayable",
      "type": "function"
    }
  ],
  "bytecode": "0x6060604052341561000f57600080fd5b336000806101000a81548173ffffffffffffffffffffffffffffffffffffffff021916908373ffffffffffffffffffffffffffffffffffffffff1602179055506101ce8061005e6000396000f30060606040526004361061004c576000357c0100000000000000000000000000000000000000000000000000000000900463ffffffff1680638da5cb5b14610051578063f2fde38b146100a6575b600080fd5b341561005c57600080fd5b6100646100df565b604051808273ffffffffffffffffffffffffffffffffffffffff1673ffffffffffffffffffffffffffffffffffffffff16815260200191505060405180910390f35b34156100b157600080fd5b6100dd600480803573ffffffffffffffffffffffffffffffffffffffff16906020019091905050610104565b005b6000809054906101000a900473ffffffffffffffffffffffffffffffffffffffff1681565b6000809054906101000a900473ffffffffffffffffffffffffffffffffffffffff1673ffffffffffffffffffffffffffffffffffffffff163373ffffffffffffffffffffffffffffffffffffffff1614151561015f57600080fd5b806000806101000a81548173ffffffffffffffffffffffffffffffffffffffff021916908373ffffffffffffffffffffffffffffffffffffffff160217905550505600a165627a7a723058206e39a17a91682bcb61f8578bb8878953ff181880113e2fd096116fbba1ef93210029",
  "source": "pragma solidity ^0.4.17;\n\nimport 'erc821/contracts/FullAssetRegistry.sol';\n\n\ncontract Owned {\n  address public owner;\n\n  function Owned() public {\n    owner = msg.sender;\n  }\n\n  modifier onlyOwner {\n    require(msg.sender == owner);\n    _;\n  }\n\n  function transferOwnership(address newOwner) onlyOwner public {\n    owner = newOwner;\n  }\n}\n\n\ncontract TimewalkLand is Owned, FullAssetRegistry {\n\n  function TimewalkLand() public {\n    _name = \"TimewalkLand\";\n    _symbol = \"TWL\";\n    _description = \"First test of timewalk land tokens\";\n  }\n\n  // map assetId to placeId\n  mapping(uint256 => string) public placeIdLookup;\n\n  // expressed in wei\n  uint256 public price;\n\n  function setPrices(uint256 _newPriceInFinneey) onlyOwner public {\n    price = _newPriceInFinneey * 1 finney;\n  }\n\n  // check if the assetId is already taken\n  function claim(string _placeId, uint256 _year) payable public {\n    require(msg.value >= price);\n\n    uint256 assetId = uint256(keccak256(_placeId, _year));\n\n    if (bytes(placeIdLookup[assetId]).length == 0) {\n      _generate(assetId, msg.sender);\n\n      placeIdLookup[assetId] = _placeId;\n    }\n  }\n\n  function placeAvailable(string _placeId, uint256 _year) public view returns(bool) {\n    uint256 assetId = uint256(keccak256(_placeId, _year));\n\n    if (bytes(placeIdLookup[assetId]).length == 0) {\n      return true;\n    } else {\n      return false;\n    }\n  }\n\n  function withdraw() onlyOwner public {\n    msg.sender.transfer(this.balance);\n  }\n\n}\n",
  "sourcePath": "/Users/michaelreinstein/wwwroot/tmp/ethereum-token-contract/contracts/TimewalkLand.sol",
  "compiler": {
    "name": "solc",
    "version": "0.4.19+commit.c4cbbb05.Emscripten.clang"
  },
  "schemaVersion": "2.0.0",
  "updatedAt": "2018-03-21T14:43:01.501Z"
}