{
  "contractName": "owned",
  "abi": [
    {
      "constant": true,
      "inputs": [],
      "name": "owner",
      "outputs": [
        {
          "name": "",
          "type": "address"
        }
      ],
      "payable": false,
      "stateMutability": "view",
      "type": "function"
    },
    {
      "inputs": [],
      "payable": false,
      "stateMutability": "nonpayable",
      "type": "constructor"
    },
    {
      "constant": false,
      "inputs": [
        {
          "name": "newOwner",
          "type": "address"
        }
      ],
      "name": "transferOwnership",
      "outputs": [],
      "payable": false,
      "stateMutability": "nonpayable",
      "type": "function"
    }
  ],
  "bytecode": "0x6060604052341561000f57600080fd5b336000806101000a81548173ffffffffffffffffffffffffffffffffffffffff021916908373ffffffffffffffffffffffffffffffffffffffff1602179055506101ce8061005e6000396000f30060606040526004361061004c576000357c0100000000000000000000000000000000000000000000000000000000900463ffffffff1680638da5cb5b14610051578063f2fde38b146100a6575b600080fd5b341561005c57600080fd5b6100646100df565b604051808273ffffffffffffffffffffffffffffffffffffffff1673ffffffffffffffffffffffffffffffffffffffff16815260200191505060405180910390f35b34156100b157600080fd5b6100dd600480803573ffffffffffffffffffffffffffffffffffffffff16906020019091905050610104565b005b6000809054906101000a900473ffffffffffffffffffffffffffffffffffffffff1681565b6000809054906101000a900473ffffffffffffffffffffffffffffffffffffffff1673ffffffffffffffffffffffffffffffffffffffff163373ffffffffffffffffffffffffffffffffffffffff1614151561015f57600080fd5b806000806101000a81548173ffffffffffffffffffffffffffffffffffffffff021916908373ffffffffffffffffffffffffffffffffffffffff160217905550505600a165627a7a72305820e6b1ca161e8e4607020cd5fd25e108d7e5b2d0ed0ce804f74b0c07a323b192c40029",
  "source": "pragma solidity ^0.4.18;\n\nimport 'erc821/build/contracts/StandardAssetRegistry.sol';\n\n\ncontract owned {\n  address public owner;\n\n  function owned() public {\n    owner = msg.sender;\n  }\n\n  modifier onlyOwner {\n    require(msg.sender == owner);\n    _;\n  }\n\n  function transferOwnership(address newOwner) onlyOwner public {\n    owner = newOwner;\n  }\n}\n\n\ncontract TimewalkLand is owned,StandardAssetRegistry {\n\n  function TimewalkLand() public {\n    _name = \"TimewalkLand\";\n    _symbol = \"TWL\";\n    _description = \"First test of timewalk land tokens\";\n    owner = msg.sender;\n  }\n\n  // map assetId to placeId\n  mapping(uint256 => string) placeIdLookup;\n\n  // expressed in wei\n  uint256 public sellPrice;\n  uint256 public buyPrice;\n\n  function setPrices(uint256 newSellPriceInFinney, uint256 newBuyPriceInFinney) onlyOwner public {\n    sellPrice = newSellPriceInFinney * 1 finney;\n    buyPrice = newBuyPriceInFinney * 1 finney;\n  }\n\n  function claim(string placeId) payable public {\n    require(msg.value >= buyPrice);\n\n    uint256 assetId = uint256(keccak256(placeId));\n\n    _generate(assetId, msg.sender, placeId);\n\n    placeIdLookup[assetId] = placeId;\n  }\n\n}\n",
  "sourcePath": "/Users/michaelreinstein/wwwroot/ethereum-token-contract/contracts/TimewalkLand.sol",
  "compiler": {
    "name": "solc",
    "version": "0.4.19+commit.c4cbbb05.Emscripten.clang"
  },
  "schemaVersion": "1.0.1",
  "updatedAt": "2018-02-21T04:17:00.423Z"
}