{
  "contractName": "TimewalkLand",
  "abi": [
    {
      "constant": true,
      "inputs": [
        {
          "name": "_interfaceID",
          "type": "bytes4"
        }
      ],
      "name": "supportsInterface",
      "outputs": [
        {
          "name": "",
          "type": "bool"
        }
      ],
      "payable": false,
      "stateMutability": "view",
      "type": "function"
    },
    {
      "constant": true,
      "inputs": [],
      "name": "name",
      "outputs": [
        {
          "name": "",
          "type": "string"
        }
      ],
      "payable": false,
      "stateMutability": "view",
      "type": "function"
    },
    {
      "constant": false,
      "inputs": [
        {
          "name": "operator",
          "type": "address"
        },
        {
          "name": "assetId",
          "type": "uint256"
        }
      ],
      "name": "approve",
      "outputs": [],
      "payable": false,
      "stateMutability": "nonpayable",
      "type": "function"
    },
    {
      "constant": true,
      "inputs": [],
      "name": "totalSupply",
      "outputs": [
        {
          "name": "",
          "type": "uint256"
        }
      ],
      "payable": false,
      "stateMutability": "view",
      "type": "function"
    },
    {
      "constant": false,
      "inputs": [
        {
          "name": "from",
          "type": "address"
        },
        {
          "name": "to",
          "type": "address"
        },
        {
          "name": "assetId",
          "type": "uint256"
        }
      ],
      "name": "transferFrom",
      "outputs": [],
      "payable": false,
      "stateMutability": "nonpayable",
      "type": "function"
    },
    {
      "constant": true,
      "inputs": [
        {
          "name": "operator",
          "type": "address"
        },
        {
          "name": "assetId",
          "type": "uint256"
        }
      ],
      "name": "isAuthorized",
      "outputs": [
        {
          "name": "",
          "type": "bool"
        }
      ],
      "payable": false,
      "stateMutability": "view",
      "type": "function"
    },
    {
      "constant": true,
      "inputs": [
        {
          "name": "owner",
          "type": "address"
        },
        {
          "name": "index",
          "type": "uint256"
        }
      ],
      "name": "tokenOfOwnerByIndex",
      "outputs": [
        {
          "name": "assetId",
          "type": "uint256"
        }
      ],
      "payable": false,
      "stateMutability": "view",
      "type": "function"
    },
    {
      "constant": true,
      "inputs": [],
      "name": "decimals",
      "outputs": [
        {
          "name": "",
          "type": "uint256"
        }
      ],
      "payable": false,
      "stateMutability": "pure",
      "type": "function"
    },
    {
      "constant": false,
      "inputs": [
        {
          "name": "from",
          "type": "address"
        },
        {
          "name": "to",
          "type": "address"
        },
        {
          "name": "assetId",
          "type": "uint256"
        }
      ],
      "name": "safeTransferFrom",
      "outputs": [],
      "payable": false,
      "stateMutability": "nonpayable",
      "type": "function"
    },
    {
      "constant": true,
      "inputs": [],
      "name": "sellPrice",
      "outputs": [
        {
          "name": "",
          "type": "uint256"
        }
      ],
      "payable": false,
      "stateMutability": "view",
      "type": "function"
    },
    {
      "constant": true,
      "inputs": [
        {
          "name": "assetId",
          "type": "uint256"
        }
      ],
      "name": "exists",
      "outputs": [
        {
          "name": "",
          "type": "bool"
        }
      ],
      "payable": false,
      "stateMutability": "view",
      "type": "function"
    },
    {
      "constant": true,
      "inputs": [
        {
          "name": "owner",
          "type": "address"
        }
      ],
      "name": "tokensOf",
      "outputs": [
        {
          "name": "",
          "type": "uint256[]"
        }
      ],
      "payable": false,
      "stateMutability": "view",
      "type": "function"
    },
    {
      "constant": true,
      "inputs": [
        {
          "name": "assetId",
          "type": "uint256"
        }
      ],
      "name": "ownerOf",
      "outputs": [
        {
          "name": "",
          "type": "address"
        }
      ],
      "payable": false,
      "stateMutability": "view",
      "type": "function"
    },
    {
      "constant": true,
      "inputs": [
        {
          "name": "assetId",
          "type": "uint256"
        }
      ],
      "name": "tokenMetadata",
      "outputs": [
        {
          "name": "",
          "type": "string"
        }
      ],
      "payable": false,
      "stateMutability": "view",
      "type": "function"
    },
    {
      "constant": true,
      "inputs": [
        {
          "name": "owner",
          "type": "address"
        }
      ],
      "name": "balanceOf",
      "outputs": [
        {
          "name": "",
          "type": "uint256"
        }
      ],
      "payable": false,
      "stateMutability": "view",
      "type": "function"
    },
    {
      "constant": true,
      "inputs": [],
      "name": "description",
      "outputs": [
        {
          "name": "",
          "type": "string"
        }
      ],
      "payable": false,
      "stateMutability": "view",
      "type": "function"
    },
    {
      "constant": true,
      "inputs": [],
      "name": "buyPrice",
      "outputs": [
        {
          "name": "",
          "type": "uint256"
        }
      ],
      "payable": false,
      "stateMutability": "view",
      "type": "function"
    },
    {
      "constant": true,
      "inputs": [],
      "name": "owner",
      "outputs": [
        {
          "name": "",
          "type": "address"
        }
      ],
      "payable": false,
      "stateMutability": "view",
      "type": "function"
    },
    {
      "constant": true,
      "inputs": [],
      "name": "symbol",
      "outputs": [
        {
          "name": "",
          "type": "string"
        }
      ],
      "payable": false,
      "stateMutability": "view",
      "type": "function"
    },
    {
      "constant": false,
      "inputs": [
        {
          "name": "operator",
          "type": "address"
        },
        {
          "name": "authorized",
          "type": "bool"
        }
      ],
      "name": "setApprovalForAll",
      "outputs": [],
      "payable": false,
      "stateMutability": "nonpayable",
      "type": "function"
    },
    {
      "constant": false,
      "inputs": [
        {
          "name": "from",
          "type": "address"
        },
        {
          "name": "to",
          "type": "address"
        },
        {
          "name": "assetId",
          "type": "uint256"
        },
        {
          "name": "userData",
          "type": "bytes"
        }
      ],
      "name": "safeTransferFrom",
      "outputs": [],
      "payable": false,
      "stateMutability": "nonpayable",
      "type": "function"
    },
    {
      "constant": true,
      "inputs": [
        {
          "name": "operator",
          "type": "address"
        },
        {
          "name": "assetHolder",
          "type": "address"
        }
      ],
      "name": "isApprovedForAll",
      "outputs": [
        {
          "name": "",
          "type": "bool"
        }
      ],
      "payable": false,
      "stateMutability": "view",
      "type": "function"
    },
    {
      "constant": true,
      "inputs": [
        {
          "name": "assetId",
          "type": "uint256"
        }
      ],
      "name": "getApprovedAddress",
      "outputs": [
        {
          "name": "",
          "type": "address"
        }
      ],
      "payable": false,
      "stateMutability": "view",
      "type": "function"
    },
    {
      "constant": false,
      "inputs": [
        {
          "name": "newOwner",
          "type": "address"
        }
      ],
      "name": "transferOwnership",
      "outputs": [],
      "payable": false,
      "stateMutability": "nonpayable",
      "type": "function"
    },
    {
      "inputs": [],
      "payable": false,
      "stateMutability": "nonpayable",
      "type": "constructor"
    },
    {
      "anonymous": false,
      "inputs": [
        {
          "indexed": true,
          "name": "from",
          "type": "address"
        },
        {
          "indexed": true,
          "name": "to",
          "type": "address"
        },
        {
          "indexed": true,
          "name": "assetId",
          "type": "uint256"
        },
        {
          "indexed": false,
          "name": "operator",
          "type": "address"
        },
        {
          "indexed": false,
          "name": "userData",
          "type": "bytes"
        }
      ],
      "name": "Transfer",
      "type": "event"
    },
    {
      "anonymous": false,
      "inputs": [
        {
          "indexed": true,
          "name": "operator",
          "type": "address"
        },
        {
          "indexed": true,
          "name": "holder",
          "type": "address"
        },
        {
          "indexed": false,
          "name": "authorized",
          "type": "bool"
        }
      ],
      "name": "ApprovalForAll",
      "type": "event"
    },
    {
      "anonymous": false,
      "inputs": [
        {
          "indexed": true,
          "name": "owner",
          "type": "address"
        },
        {
          "indexed": true,
          "name": "operator",
          "type": "address"
        },
        {
          "indexed": true,
          "name": "assetId",
          "type": "uint256"
        }
      ],
      "name": "Approval",
      "type": "event"
    },
    {
      "constant": false,
      "inputs": [
        {
          "name": "newSellPriceInFinney",
          "type": "uint256"
        },
        {
          "name": "newBuyPriceInFinney",
          "type": "uint256"
        }
      ],
      "name": "setPrices",
      "outputs": [],
      "payable": false,
      "stateMutability": "nonpayable",
      "type": "function"
    },
    {
      "constant": false,
      "inputs": [
        {
          "name": "placeId",
          "type": "string"
        }
      ],
      "name": "claim",
      "outputs": [],
      "payable": true,
      "stateMutability": "payable",
      "type": "function"
    }
  ],
  "bytecode": "0x606060405234156200001057600080fd5b336000806101000a81548173ffffffffffffffffffffffffffffffffffffffff021916908373ffffffffffffffffffffffffffffffffffffffff1602179055506040805190810160405280600c81526020017f54696d6577616c6b4c616e640000000000000000000000000000000000000000815250600190805190602001906200009d929190620001a7565b506040805190810160405280600381526020017f54574c000000000000000000000000000000000000000000000000000000000081525060029080519060200190620000eb929190620001a7565b50606060405190810160405280602281526020017f46697273742074657374206f662074696d6577616c6b206c616e6420746f6b6581526020017f6e730000000000000000000000000000000000000000000000000000000000008152506003908051906020019062000160929190620001a7565b50336000806101000a81548173ffffffffffffffffffffffffffffffffffffffff021916908373ffffffffffffffffffffffffffffffffffffffff16021790555062000256565b828054600181600116156101000203166002900490600052602060002090601f016020900481019282601f10620001ea57805160ff19168380011785556200021b565b828001600101855582156200021b579182015b828111156200021a578251825591602001919060010190620001fd565b5b5090506200022a91906200022e565b5090565b6200025391905b808211156200024f57600081600090555060010162000235565b5090565b90565b61231c80620002666000396000f300606060405260043610610154576000357c0100000000000000000000000000000000000000000000000000000000900463ffffffff16806301ffc9a71461015957806305fefda7146101b357806306fdde03146101df578063095ea7b31461026d57806318160ddd146102af57806323b872dd146102d85780632972b0f0146103395780632f745c5914610393578063313ce567146103e957806342842e0e146104125780634b750334146104735780634f558e791461049c5780635a3f2672146104d75780636352211e146105655780636914db60146105c857806370a08231146106645780637284e416146106b15780638620410b1461073f5780638da5cb5b1461076857806395d89b41146107bd578063a22cb4651461084b578063b88d4fde1461088f578063e985e9c514610933578063eca4742a146109a3578063f2fde38b14610a06578063f3fe12c914610a3f575b600080fd5b341561016457600080fd5b61019960048080357bffffffffffffffffffffffffffffffffffffffffffffffffffffffff1916906020019091905050610a91565b604051808215151515815260200191505060405180910390f35b34156101be57600080fd5b6101dd6004808035906020019091908035906020019091905050610b7f565b005b34156101ea57600080fd5b6101f2610bfe565b6040518080602001828103825283818151815260200191508051906020019080838360005b83811015610232578082015181840152602081019050610217565b50505050905090810190601f16801561025f5780820380516001836020036101000a031916815260200191505b509250505060405180910390f35b341561027857600080fd5b6102ad600480803573ffffffffffffffffffffffffffffffffffffffff16906020019091908035906020019091905050610ca6565b005b34156102ba57600080fd5b6102c2610dde565b6040518082815260200191505060405180910390f35b34156102e357600080fd5b610337600480803573ffffffffffffffffffffffffffffffffffffffff1690602001909190803573ffffffffffffffffffffffffffffffffffffffff16906020019091908035906020019091905050610de8565b005b341561034457600080fd5b610379600480803573ffffffffffffffffffffffffffffffffffffffff16906020019091908035906020019091905050610e0c565b604051808215151515815260200191505060405180910390f35b341561039e57600080fd5b6103d3600480803573ffffffffffffffffffffffffffffffffffffffff16906020019091908035906020019091905050610ecf565b6040518082815260200191505060405180910390f35b34156103f457600080fd5b6103fc610f9f565b6040518082815260200191505060405180910390f35b341561041d57600080fd5b610471600480803573ffffffffffffffffffffffffffffffffffffffff1690602001909190803573ffffffffffffffffffffffffffffffffffffffff16906020019091908035906020019091905050610fa7565b005b341561047e57600080fd5b610486610fcb565b6040518082815260200191505060405180910390f35b34156104a757600080fd5b6104bd6004808035906020019091905050610fd1565b604051808215151515815260200191505060405180910390f35b34156104e257600080fd5b61050e600480803573ffffffffffffffffffffffffffffffffffffffff16906020019091905050611027565b6040518080602001828103825283818151815260200191508051906020019060200280838360005b83811015610551578082015181840152602081019050610536565b505050509050019250505060405180910390f35b341561057057600080fd5b61058660048080359060200190919050506110c4565b604051808273ffffffffffffffffffffffffffffffffffffffff1673ffffffffffffffffffffffffffffffffffffffff16815260200191505060405180910390f35b34156105d357600080fd5b6105e96004808035906020019091905050611101565b6040518080602001828103825283818151815260200191508051906020019080838360005b8381101561062957808201518184015260208101905061060e565b50505050905090810190601f1680156106565780820380516001836020036101000a031916815260200191505b509250505060405180910390f35b341561066f57600080fd5b61069b600480803573ffffffffffffffffffffffffffffffffffffffff169060200190919050506111bc565b6040518082815260200191505060405180910390f35b34156106bc57600080fd5b6106c4611208565b6040518080602001828103825283818151815260200191508051906020019080838360005b838110156107045780820151818401526020810190506106e9565b50505050905090810190601f1680156107315780820380516001836020036101000a031916815260200191505b509250505060405180910390f35b341561074a57600080fd5b6107526112b0565b6040518082815260200191505060405180910390f35b341561077357600080fd5b61077b6112b6565b604051808273ffffffffffffffffffffffffffffffffffffffff1673ffffffffffffffffffffffffffffffffffffffff16815260200191505060405180910390f35b34156107c857600080fd5b6107d06112db565b6040518080602001828103825283818151815260200191508051906020019080838360005b838110156108105780820151818401526020810190506107f5565b50505050905090810190601f16801561083d5780820380516001836020036101000a031916815260200191505b509250505060405180910390f35b341561085657600080fd5b61088d600480803573ffffffffffffffffffffffffffffffffffffffff169060200190919080351515906020019091905050611383565b005b341561089a57600080fd5b610931600480803573ffffffffffffffffffffffffffffffffffffffff1690602001909190803573ffffffffffffffffffffffffffffffffffffffff1690602001909190803590602001909190803590602001908201803590602001908080601f0160208091040260200160405190810160405280939291908181526020018383808284378201915050505050509190505061143b565b005b341561093e57600080fd5b610989600480803573ffffffffffffffffffffffffffffffffffffffff1690602001909190803573ffffffffffffffffffffffffffffffffffffffff16906020019091905050611450565b604051808215151515815260200191505060405180910390f35b34156109ae57600080fd5b6109c460048080359060200190919050506114e4565b604051808273ffffffffffffffffffffffffffffffffffffffff1673ffffffffffffffffffffffffffffffffffffffff16815260200191505060405180910390f35b3415610a1157600080fd5b610a3d600480803573ffffffffffffffffffffffffffffffffffffffff16906020019091905050611521565b005b610a8f600480803590602001908201803590602001908080601f016020809104026020016040519081016040528093929190818152602001838380828437820191505050505050919050506115bf565b005b600063ffffffff7c010000000000000000000000000000000000000000000000000000000002827bffffffffffffffffffffffffffffffffffffffffffffffffffffffff19161415610ae65760009050610b7a565b6301ffc9a77c010000000000000000000000000000000000000000000000000000000002827bffffffffffffffffffffffffffffffffffffffffffffffffffffffff19161480610b775750637c0633c67c010000000000000000000000000000000000000000000000000000000002827bffffffffffffffffffffffffffffffffffffffffffffffffffffffff1916145b90505b919050565b6000809054906101000a900473ffffffffffffffffffffffffffffffffffffffff1673ffffffffffffffffffffffffffffffffffffffff163373ffffffffffffffffffffffffffffffffffffffff16141515610bda57600080fd5b66038d7ea4c680008202600c8190555066038d7ea4c680008102600d819055505050565b610c066121aa565b60018054600181600116156101000203166002900480601f016020809104026020016040519081016040528092919081815260200182805460018160011615610100020316600290048015610c9c5780601f10610c7157610100808354040283529160200191610c9c565b820191906000526020600020905b815481529060010190602001808311610c7f57829003601f168201915b5050505050905090565b6000610cb1826110c4565b90508073ffffffffffffffffffffffffffffffffffffffff168373ffffffffffffffffffffffffffffffffffffffff1614151515610cee57600080fd5b8273ffffffffffffffffffffffffffffffffffffffff16610d0e836114e4565b73ffffffffffffffffffffffffffffffffffffffff16141515610dd95782600a600084815260200190815260200160002060006101000a81548173ffffffffffffffffffffffffffffffffffffffff021916908373ffffffffffffffffffffffffffffffffffffffff160217905550818373ffffffffffffffffffffffffffffffffffffffff168273ffffffffffffffffffffffffffffffffffffffff167f8c5be1e5ebec7d5bd14f71427d1e84f3dd0314c0f7b2291e5b200ac8c7c3b92560405160405180910390a45b505050565b6000600454905090565b610e078383836020604051908101604052806000815250336000611671565b505050565b60008060008473ffffffffffffffffffffffffffffffffffffffff1614151515610e3557600080fd5b610e3e836110c4565b90508073ffffffffffffffffffffffffffffffffffffffff168473ffffffffffffffffffffffffffffffffffffffff161415610e7d5760019150610ec8565b610e878482611450565b80610ec557508373ffffffffffffffffffffffffffffffffffffffff16610ead846114e4565b73ffffffffffffffffffffffffffffffffffffffff16145b91505b5092915050565b6000600560008473ffffffffffffffffffffffffffffffffffffffff1673ffffffffffffffffffffffffffffffffffffffff1681526020019081526020016000208054905082101515610f2157600080fd5b6f8000000000000000000000000000000082101515610f3f57600080fd5b600560008473ffffffffffffffffffffffffffffffffffffffff1673ffffffffffffffffffffffffffffffffffffffff16815260200190815260200160002082815481101515610f8b57fe5b906000526020600020900154905092915050565b600080905090565b610fc68383836020604051908101604052806000815250336001611671565b505050565b600c5481565b6000806006600084815260200190815260200160002060009054906101000a900473ffffffffffffffffffffffffffffffffffffffff1673ffffffffffffffffffffffffffffffffffffffff1614159050919050565b61102f6121be565b600560008373ffffffffffffffffffffffffffffffffffffffff1673ffffffffffffffffffffffffffffffffffffffff1681526020019081526020016000208054806020026020016040519081016040528092919081815260200182805480156110b857602002820191906000526020600020905b8154815260200190600101908083116110a4575b50505050509050919050565b60006006600083815260200190815260200160002060009054906101000a900473ffffffffffffffffffffffffffffffffffffffff169050919050565b6111096121aa565b600860008381526020019081526020016000208054600181600116156101000203166002900480601f0160208091040260200160405190810160405280929190818152602001828054600181600116156101000203166002900480156111b05780601f10611185576101008083540402835291602001916111b0565b820191906000526020600020905b81548152906001019060200180831161119357829003601f168201915b50505050509050919050565b6000600560008373ffffffffffffffffffffffffffffffffffffffff1673ffffffffffffffffffffffffffffffffffffffff168152602001908152602001600020805490509050919050565b6112106121aa565b60038054600181600116156101000203166002900480601f0160208091040260200160405190810160405280929190818152602001828054600181600116156101000203166002900480156112a65780601f1061127b576101008083540402835291602001916112a6565b820191906000526020600020905b81548152906001019060200180831161128957829003601f168201915b5050505050905090565b600d5481565b6000809054906101000a900473ffffffffffffffffffffffffffffffffffffffff1681565b6112e36121aa565b60028054600181600116156101000203166002900480601f0160208091040260200160405190810160405280929190818152602001828054600181600116156101000203166002900480156113795780601f1061134e57610100808354040283529160200191611379565b820191906000526020600020905b81548152906001019060200180831161135c57829003601f168201915b5050505050905090565b80156113ae576113938233611450565b15151561139f57600080fd5b6113a98233611a2c565b6113ce565b6113b88233611450565b15156113c357600080fd5b6113cd8233611ac5565b5b3373ffffffffffffffffffffffffffffffffffffffff168273ffffffffffffffffffffffffffffffffffffffff167f17307eab39ab6107e8899845ad3d59bd9653f200f220920489ca2b5937696c3183604051808215151515815260200191505060405180910390a35050565b61144a84848484336001611671565b50505050565b6000600960008373ffffffffffffffffffffffffffffffffffffffff1673ffffffffffffffffffffffffffffffffffffffff16815260200190815260200160002060008473ffffffffffffffffffffffffffffffffffffffff1673ffffffffffffffffffffffffffffffffffffffff16815260200190815260200160002060009054906101000a900460ff16905092915050565b6000600a600083815260200190815260200160002060009054906101000a900473ffffffffffffffffffffffffffffffffffffffff169050919050565b6000809054906101000a900473ffffffffffffffffffffffffffffffffffffffff1673ffffffffffffffffffffffffffffffffffffffff163373ffffffffffffffffffffffffffffffffffffffff1614151561157c57600080fd5b806000806101000a81548173ffffffffffffffffffffffffffffffffffffffff021916908373ffffffffffffffffffffffffffffffffffffffff16021790555050565b6000600d5434101515156115d257600080fd5b816040518082805190602001908083835b60208310151561160857805182526020820191506020810190506020830392506115e3565b6001836020036101000a03801982511681845116808217855250505050505090500191505060405180910390206001900490506116458133611b5e565b81600b6000838152602001908152602001600020908051906020019061166c9291906121d2565b505050565b60008560008173ffffffffffffffffffffffffffffffffffffffff161415151561169a57600080fd5b85878073ffffffffffffffffffffffffffffffffffffffff166006600084815260200190815260200160002060009054906101000a900473ffffffffffffffffffffffffffffffffffffffff1673ffffffffffffffffffffffffffffffffffffffff161415151561170a57600080fd5b89888173ffffffffffffffffffffffffffffffffffffffff166006600083815260200190815260200160002060009054906101000a900473ffffffffffffffffffffffffffffffffffffffff1673ffffffffffffffffffffffffffffffffffffffff1614151561177957600080fd5b896117843382610e0c565b151561178f57600080fd5b600660008c815260200190815260200160002060009054906101000a900473ffffffffffffffffffffffffffffffffffffffff1696506117cf878c611c55565b6117d9878c611f32565b6117e38c8c612062565b8780156117f557506117f48c612160565b5b1561191e578b73ffffffffffffffffffffffffffffffffffffffff16635254a38c61c3508d8a8e6040518563ffffffff167c0100000000000000000000000000000000000000000000000000000000028152600401808481526020018373ffffffffffffffffffffffffffffffffffffffff1673ffffffffffffffffffffffffffffffffffffffff16815260200180602001828103825283818151815260200191508051906020019080838360005b838110156118bf5780820151818401526020810190506118a4565b50505050905090810190601f1680156118ec5780820380516001836020036101000a031916815260200191505b50945050505050600060405180830381600088803b151561190c57600080fd5b87f1151561191957600080fd5b505050505b8a8c73ffffffffffffffffffffffffffffffffffffffff168873ffffffffffffffffffffffffffffffffffffffff167fd5c97f2e041b2046be3b4337472f05720760a198f4d7d84980b7155eec7cca6f8c8e604051808373ffffffffffffffffffffffffffffffffffffffff1673ffffffffffffffffffffffffffffffffffffffff16815260200180602001828103825283818151815260200191508051906020019080838360005b838110156119e25780820151818401526020810190506119c7565b50505050905090810190601f168015611a0f5780820380516001836020036101000a031916815260200191505b50935050505060405180910390a450505050505050505050505050565b6001600960008373ffffffffffffffffffffffffffffffffffffffff1673ffffffffffffffffffffffffffffffffffffffff16815260200190815260200160002060008473ffffffffffffffffffffffffffffffffffffffff1673ffffffffffffffffffffffffffffffffffffffff16815260200190815260200160002060006101000a81548160ff0219169083151502179055505050565b6000600960008373ffffffffffffffffffffffffffffffffffffffff1673ffffffffffffffffffffffffffffffffffffffff16815260200190815260200160002060008473ffffffffffffffffffffffffffffffffffffffff1673ffffffffffffffffffffffffffffffffffffffff16815260200190815260200160002060006101000a81548160ff0219169083151502179055505050565b60006006600084815260200190815260200160002060009054906101000a900473ffffffffffffffffffffffffffffffffffffffff1673ffffffffffffffffffffffffffffffffffffffff16141515611bb657600080fd5b611bc08183612062565b818173ffffffffffffffffffffffffffffffffffffffff1660007fd5c97f2e041b2046be3b4337472f05720760a198f4d7d84980b7155eec7cca6f33604051808273ffffffffffffffffffffffffffffffffffffffff1673ffffffffffffffffffffffffffffffffffffffff168152602001806020018281038252600081526020016020019250505060405180910390a45050565b600080600060076000858152602001908152602001600020549250611c8c6001611c7e876111bc565b61217390919063ffffffff16565b9150600560008673ffffffffffffffffffffffffffffffffffffffff1673ffffffffffffffffffffffffffffffffffffffff16815260200190815260200160002082815481101515611cda57fe5b906000526020600020900154905060006006600086815260200190815260200160002060006101000a81548173ffffffffffffffffffffffffffffffffffffffff021916908373ffffffffffffffffffffffffffffffffffffffff16021790555080600560008773ffffffffffffffffffffffffffffffffffffffff1673ffffffffffffffffffffffffffffffffffffffff16815260200190815260200160002084815481101515611d8857fe5b9060005260206000209001819055506000600560008773ffffffffffffffffffffffffffffffffffffffff1673ffffffffffffffffffffffffffffffffffffffff16815260200190815260200160002083815481101515611de557fe5b906000526020600020900181905550600560008673ffffffffffffffffffffffffffffffffffffffff1673ffffffffffffffffffffffffffffffffffffffff168152602001908152602001600020805480919060019003611e469190612252565b506000600560008773ffffffffffffffffffffffffffffffffffffffff1673ffffffffffffffffffffffffffffffffffffffff168152602001908152602001600020805490501415611ede57600560008673ffffffffffffffffffffffffffffffffffffffff1673ffffffffffffffffffffffffffffffffffffffff1681526020019081526020016000206000611edd919061227e565b5b60006007600086815260200190815260200160002081905550826007600083815260200190815260200160002081905550611f25600160045461217390919063ffffffff16565b6004819055505050505050565b8173ffffffffffffffffffffffffffffffffffffffff16611f52826110c4565b73ffffffffffffffffffffffffffffffffffffffff16148015611fbf57506000600a600083815260200190815260200160002060009054906101000a900473ffffffffffffffffffffffffffffffffffffffff1673ffffffffffffffffffffffffffffffffffffffff1614155b1561205e576000600a600083815260200190815260200160002060006101000a81548173ffffffffffffffffffffffffffffffffffffffff021916908373ffffffffffffffffffffffffffffffffffffffff1602179055508060008373ffffffffffffffffffffffffffffffffffffffff167f8c5be1e5ebec7d5bd14f71427d1e84f3dd0314c0f7b2291e5b200ac8c7c3b92560405160405180910390a45b5050565b6000826006600084815260200190815260200160002060006101000a81548173ffffffffffffffffffffffffffffffffffffffff021916908373ffffffffffffffffffffffffffffffffffffffff1602179055506120bf836111bc565b9050600560008473ffffffffffffffffffffffffffffffffffffffff1673ffffffffffffffffffffffffffffffffffffffff1681526020019081526020016000208054806001018281612112919061229f565b916000526020600020900160008490919091505550806007600084815260200190815260200160002081905550612155600160045461218c90919063ffffffff16565b600481905550505050565b600080823b905060008111915050919050565b600082821115151561218157fe5b818303905092915050565b60008082840190508381101515156121a057fe5b8091505092915050565b602060405190810160405280600081525090565b602060405190810160405280600081525090565b828054600181600116156101000203166002900490600052602060002090601f016020900481019282601f1061221357805160ff1916838001178555612241565b82800160010185558215612241579182015b82811115612240578251825591602001919060010190612225565b5b50905061224e91906122cb565b5090565b8154818355818115116122795781836000526020600020918201910161227891906122cb565b5b505050565b508054600082559060005260206000209081019061229c91906122cb565b50565b8154818355818115116122c6578183600052602060002091820191016122c591906122cb565b5b505050565b6122ed91905b808211156122e95760008160009055506001016122d1565b5090565b905600a165627a7a72305820453b58c29f6c7688a553f189654458b94a6f3847c95288df591bc51d890028050029",
  "source": "pragma solidity ^0.4.17;\n\nimport 'erc821/contracts/FullAssetRegistry.sol';\n\n\ncontract owned {\n  address public owner;\n\n  function owned() public {\n    owner = msg.sender;\n  }\n\n  modifier onlyOwner {\n    require(msg.sender == owner);\n    _;\n  }\n\n  function transferOwnership(address newOwner) onlyOwner public {\n    owner = newOwner;\n  }\n}\n\n\ncontract TimewalkLand is owned, FullAssetRegistry {\n\n  function TimewalkLand() public {\n    _name = \"TimewalkLand\";\n    _symbol = \"TWL\";\n    _description = \"First test of timewalk land tokens\";\n    owner = msg.sender;\n  }\n\n  // map assetId to placeId\n  mapping(uint256 => string) placeIdLookup;\n\n  // expressed in wei\n  uint256 public sellPrice;\n  uint256 public buyPrice;\n\n  function setPrices(uint256 newSellPriceInFinney, uint256 newBuyPriceInFinney) onlyOwner public {\n    sellPrice = newSellPriceInFinney * 1 finney;\n    buyPrice = newBuyPriceInFinney * 1 finney;\n  }\n\n  function claim(string placeId) payable public {\n    require(msg.value >= buyPrice);\n\n    uint256 assetId = uint256(keccak256(placeId));\n\n    _generate(assetId, msg.sender);\n\n    placeIdLookup[assetId] = placeId;\n  }\n\n}\n",
  "sourcePath": "/Users/michaelreinstein/wwwroot/ethereum-token-contract/contracts/TimewalkLand.sol",
  "compiler": {
    "name": "solc",
    "version": "0.4.19+commit.c4cbbb05.Emscripten.clang"
  },
  "schemaVersion": "2.0.0",
  "updatedAt": "2018-03-13T00:19:35.384Z"
}