{
  "contractName": "TimewalkLand",
  "abi": [
    {
      "constant": true,
      "inputs": [
        {
          "name": "_interfaceID",
          "type": "bytes4"
        }
      ],
      "name": "supportsInterface",
      "outputs": [
        {
          "name": "",
          "type": "bool"
        }
      ],
      "payable": false,
      "stateMutability": "view",
      "type": "function"
    },
    {
      "constant": true,
      "inputs": [],
      "name": "name",
      "outputs": [
        {
          "name": "",
          "type": "string"
        }
      ],
      "payable": false,
      "stateMutability": "view",
      "type": "function"
    },
    {
      "constant": false,
      "inputs": [
        {
          "name": "operator",
          "type": "address"
        },
        {
          "name": "assetId",
          "type": "uint256"
        }
      ],
      "name": "approve",
      "outputs": [],
      "payable": false,
      "stateMutability": "nonpayable",
      "type": "function"
    },
    {
      "constant": true,
      "inputs": [],
      "name": "totalSupply",
      "outputs": [
        {
          "name": "",
          "type": "uint256"
        }
      ],
      "payable": false,
      "stateMutability": "view",
      "type": "function"
    },
    {
      "constant": false,
      "inputs": [
        {
          "name": "from",
          "type": "address"
        },
        {
          "name": "to",
          "type": "address"
        },
        {
          "name": "assetId",
          "type": "uint256"
        }
      ],
      "name": "transferFrom",
      "outputs": [],
      "payable": false,
      "stateMutability": "nonpayable",
      "type": "function"
    },
    {
      "constant": true,
      "inputs": [
        {
          "name": "operator",
          "type": "address"
        },
        {
          "name": "assetId",
          "type": "uint256"
        }
      ],
      "name": "isAuthorized",
      "outputs": [
        {
          "name": "",
          "type": "bool"
        }
      ],
      "payable": false,
      "stateMutability": "view",
      "type": "function"
    },
    {
      "constant": true,
      "inputs": [
        {
          "name": "owner",
          "type": "address"
        },
        {
          "name": "index",
          "type": "uint256"
        }
      ],
      "name": "tokenOfOwnerByIndex",
      "outputs": [
        {
          "name": "assetId",
          "type": "uint256"
        }
      ],
      "payable": false,
      "stateMutability": "view",
      "type": "function"
    },
    {
      "constant": true,
      "inputs": [],
      "name": "decimals",
      "outputs": [
        {
          "name": "",
          "type": "uint256"
        }
      ],
      "payable": false,
      "stateMutability": "pure",
      "type": "function"
    },
    {
      "constant": true,
      "inputs": [
        {
          "name": "",
          "type": "uint256"
        }
      ],
      "name": "placeIdLookup",
      "outputs": [
        {
          "name": "",
          "type": "string"
        }
      ],
      "payable": false,
      "stateMutability": "view",
      "type": "function"
    },
    {
      "constant": false,
      "inputs": [
        {
          "name": "from",
          "type": "address"
        },
        {
          "name": "to",
          "type": "address"
        },
        {
          "name": "assetId",
          "type": "uint256"
        }
      ],
      "name": "safeTransferFrom",
      "outputs": [],
      "payable": false,
      "stateMutability": "nonpayable",
      "type": "function"
    },
    {
      "constant": true,
      "inputs": [
        {
          "name": "assetId",
          "type": "uint256"
        }
      ],
      "name": "exists",
      "outputs": [
        {
          "name": "",
          "type": "bool"
        }
      ],
      "payable": false,
      "stateMutability": "view",
      "type": "function"
    },
    {
      "constant": true,
      "inputs": [
        {
          "name": "owner",
          "type": "address"
        }
      ],
      "name": "tokensOf",
      "outputs": [
        {
          "name": "",
          "type": "uint256[]"
        }
      ],
      "payable": false,
      "stateMutability": "view",
      "type": "function"
    },
    {
      "constant": true,
      "inputs": [
        {
          "name": "assetId",
          "type": "uint256"
        }
      ],
      "name": "ownerOf",
      "outputs": [
        {
          "name": "",
          "type": "address"
        }
      ],
      "payable": false,
      "stateMutability": "view",
      "type": "function"
    },
    {
      "constant": true,
      "inputs": [
        {
          "name": "assetId",
          "type": "uint256"
        }
      ],
      "name": "tokenMetadata",
      "outputs": [
        {
          "name": "",
          "type": "string"
        }
      ],
      "payable": false,
      "stateMutability": "view",
      "type": "function"
    },
    {
      "constant": true,
      "inputs": [
        {
          "name": "owner",
          "type": "address"
        }
      ],
      "name": "balanceOf",
      "outputs": [
        {
          "name": "",
          "type": "uint256"
        }
      ],
      "payable": false,
      "stateMutability": "view",
      "type": "function"
    },
    {
      "constant": true,
      "inputs": [],
      "name": "description",
      "outputs": [
        {
          "name": "",
          "type": "string"
        }
      ],
      "payable": false,
      "stateMutability": "view",
      "type": "function"
    },
    {
      "constant": true,
      "inputs": [],
      "name": "owner",
      "outputs": [
        {
          "name": "",
          "type": "address"
        }
      ],
      "payable": false,
      "stateMutability": "view",
      "type": "function"
    },
    {
      "constant": true,
      "inputs": [],
      "name": "symbol",
      "outputs": [
        {
          "name": "",
          "type": "string"
        }
      ],
      "payable": false,
      "stateMutability": "view",
      "type": "function"
    },
    {
      "constant": true,
      "inputs": [],
      "name": "price",
      "outputs": [
        {
          "name": "",
          "type": "uint256"
        }
      ],
      "payable": false,
      "stateMutability": "view",
      "type": "function"
    },
    {
      "constant": false,
      "inputs": [
        {
          "name": "operator",
          "type": "address"
        },
        {
          "name": "authorized",
          "type": "bool"
        }
      ],
      "name": "setApprovalForAll",
      "outputs": [],
      "payable": false,
      "stateMutability": "nonpayable",
      "type": "function"
    },
    {
      "constant": false,
      "inputs": [
        {
          "name": "from",
          "type": "address"
        },
        {
          "name": "to",
          "type": "address"
        },
        {
          "name": "assetId",
          "type": "uint256"
        },
        {
          "name": "userData",
          "type": "bytes"
        }
      ],
      "name": "safeTransferFrom",
      "outputs": [],
      "payable": false,
      "stateMutability": "nonpayable",
      "type": "function"
    },
    {
      "constant": true,
      "inputs": [],
      "name": "marketplaceContract",
      "outputs": [
        {
          "name": "",
          "type": "address"
        }
      ],
      "payable": false,
      "stateMutability": "view",
      "type": "function"
    },
    {
      "constant": true,
      "inputs": [
        {
          "name": "operator",
          "type": "address"
        },
        {
          "name": "assetHolder",
          "type": "address"
        }
      ],
      "name": "isApprovedForAll",
      "outputs": [
        {
          "name": "",
          "type": "bool"
        }
      ],
      "payable": false,
      "stateMutability": "view",
      "type": "function"
    },
    {
      "constant": true,
      "inputs": [
        {
          "name": "assetId",
          "type": "uint256"
        }
      ],
      "name": "getApprovedAddress",
      "outputs": [
        {
          "name": "",
          "type": "address"
        }
      ],
      "payable": false,
      "stateMutability": "view",
      "type": "function"
    },
    {
      "constant": false,
      "inputs": [
        {
          "name": "newOwner",
          "type": "address"
        }
      ],
      "name": "transferOwnership",
      "outputs": [],
      "payable": false,
      "stateMutability": "nonpayable",
      "type": "function"
    },
    {
      "inputs": [],
      "payable": false,
      "stateMutability": "nonpayable",
      "type": "constructor"
    },
    {
      "anonymous": false,
      "inputs": [
        {
          "indexed": false,
          "name": "_claimer",
          "type": "address"
        },
        {
          "indexed": false,
          "name": "_placeData",
          "type": "string"
        },
        {
          "indexed": false,
          "name": "_assetId",
          "type": "uint256"
        }
      ],
      "name": "Claimed",
      "type": "event"
    },
    {
      "anonymous": false,
      "inputs": [
        {
          "indexed": true,
          "name": "from",
          "type": "address"
        },
        {
          "indexed": true,
          "name": "to",
          "type": "address"
        },
        {
          "indexed": true,
          "name": "assetId",
          "type": "uint256"
        },
        {
          "indexed": false,
          "name": "operator",
          "type": "address"
        },
        {
          "indexed": false,
          "name": "userData",
          "type": "bytes"
        }
      ],
      "name": "Transfer",
      "type": "event"
    },
    {
      "anonymous": false,
      "inputs": [
        {
          "indexed": true,
          "name": "operator",
          "type": "address"
        },
        {
          "indexed": true,
          "name": "holder",
          "type": "address"
        },
        {
          "indexed": false,
          "name": "authorized",
          "type": "bool"
        }
      ],
      "name": "ApprovalForAll",
      "type": "event"
    },
    {
      "anonymous": false,
      "inputs": [
        {
          "indexed": true,
          "name": "owner",
          "type": "address"
        },
        {
          "indexed": true,
          "name": "operator",
          "type": "address"
        },
        {
          "indexed": true,
          "name": "assetId",
          "type": "uint256"
        }
      ],
      "name": "Approval",
      "type": "event"
    },
    {
      "constant": false,
      "inputs": [
        {
          "name": "_newPrice",
          "type": "uint256"
        }
      ],
      "name": "setPrice",
      "outputs": [],
      "payable": false,
      "stateMutability": "nonpayable",
      "type": "function"
    },
    {
      "constant": false,
      "inputs": [
        {
          "name": "_placeData",
          "type": "string"
        }
      ],
      "name": "claim",
      "outputs": [],
      "payable": true,
      "stateMutability": "payable",
      "type": "function"
    },
    {
      "constant": true,
      "inputs": [
        {
          "name": "_placeData",
          "type": "string"
        }
      ],
      "name": "placeAvailable",
      "outputs": [
        {
          "name": "",
          "type": "bool"
        }
      ],
      "payable": false,
      "stateMutability": "view",
      "type": "function"
    },
    {
      "constant": false,
      "inputs": [
        {
          "name": "_assetId",
          "type": "uint256"
        },
        {
          "name": "_amount",
          "type": "uint256"
        }
      ],
      "name": "approveAndSell",
      "outputs": [],
      "payable": false,
      "stateMutability": "nonpayable",
      "type": "function"
    },
    {
      "constant": false,
      "inputs": [],
      "name": "withdraw",
      "outputs": [],
      "payable": false,
      "stateMutability": "nonpayable",
      "type": "function"
    },
    {
      "constant": false,
      "inputs": [
        {
          "name": "_marketplace",
          "type": "address"
        }
      ],
      "name": "setMarketplaceContract",
      "outputs": [],
      "payable": false,
      "stateMutability": "nonpayable",
      "type": "function"
    }
  ],
  "bytecode": "0x60806040523480156200001157600080fd5b50336000806101000a81548173ffffffffffffffffffffffffffffffffffffffff021916908373ffffffffffffffffffffffffffffffffffffffff1602179055506040805190810160405280600c81526020017f54696d6577616c6b4c616e640000000000000000000000000000000000000000815250600190805190602001906200009f92919062000142565b506040805190810160405280600381526020017f54574c000000000000000000000000000000000000000000000000000000000081525060029080519060200190620000ed92919062000142565b506040805190810160405280601481526020017f54696d6577616c6b204c616e6420546f6b656e73000000000000000000000000815250600390805190602001906200013b92919062000142565b50620001f1565b828054600181600116156101000203166002900490600052602060002090601f016020900481019282601f106200018557805160ff1916838001178555620001b6565b82800160010185558215620001b6579182015b82811115620001b557825182559160200191906001019062000198565b5b509050620001c59190620001c9565b5090565b620001ee91905b80821115620001ea576000816000905550600101620001d0565b5090565b90565b612c3480620002016000396000f30060806040526004361061018b576000357c0100000000000000000000000000000000000000000000000000000000900463ffffffff16806301ffc9a71461019057806306fdde03146101f4578063095ea7b3146102845780631102610e146102d157806318160ddd1461031457806323b872dd1461033f5780632972b0f0146103ac5780632f745c5914610411578063313ce567146104725780633ccfd60b1461049d578063414bea30146104b457806342842e0e1461055a5780634f558e79146105c75780635a3f26721461060c5780636352211e146106a45780636914db60146107115780636f2feb0a146107b757806370a08231146107ee57806370cae989146108455780637284e416146108c65780638da5cb5b1461095657806391b7f5ed146109ad57806395d89b41146109da578063a035b1fe14610a6a578063a22cb46514610a95578063b88d4fde14610ae4578063d1bb5cf114610b97578063e985e9c514610bee578063eca4742a14610c69578063f2fde38b14610cd6578063f3fe12c914610d19575b600080fd5b34801561019c57600080fd5b506101da60048036038101908080357bffffffffffffffffffffffffffffffffffffffffffffffffffffffff19169060200190929190505050610d75565b604051808215151515815260200191505060405180910390f35b34801561020057600080fd5b50610209610e63565b6040518080602001828103825283818151815260200191508051906020019080838360005b8381101561024957808201518184015260208101905061022e565b50505050905090810190601f1680156102765780820380516001836020036101000a031916815260200191505b509250505060405180910390f35b34801561029057600080fd5b506102cf600480360381019080803573ffffffffffffffffffffffffffffffffffffffff16906020019092919080359060200190929190505050610f05565b005b3480156102dd57600080fd5b50610312600480360381019080803573ffffffffffffffffffffffffffffffffffffffff16906020019092919050505061103d565b005b34801561032057600080fd5b50610329611123565b6040518082815260200191505060405180910390f35b34801561034b57600080fd5b506103aa600480360381019080803573ffffffffffffffffffffffffffffffffffffffff169060200190929190803573ffffffffffffffffffffffffffffffffffffffff1690602001909291908035906020019092919050505061112d565b005b3480156103b857600080fd5b506103f7600480360381019080803573ffffffffffffffffffffffffffffffffffffffff16906020019092919080359060200190929190505050611151565b604051808215151515815260200191505060405180910390f35b34801561041d57600080fd5b5061045c600480360381019080803573ffffffffffffffffffffffffffffffffffffffff16906020019092919080359060200190929190505050611214565b6040518082815260200191505060405180910390f35b34801561047e57600080fd5b506104876112e3565b6040518082815260200191505060405180910390f35b3480156104a957600080fd5b506104b26112eb565b005b3480156104c057600080fd5b506104df600480360381019080803590602001909291905050506113a6565b6040518080602001828103825283818151815260200191508051906020019080838360005b8381101561051f578082015181840152602081019050610504565b50505050905090810190601f16801561054c5780820380516001836020036101000a031916815260200191505b509250505060405180910390f35b34801561056657600080fd5b506105c5600480360381019080803573ffffffffffffffffffffffffffffffffffffffff169060200190929190803573ffffffffffffffffffffffffffffffffffffffff16906020019092919080359060200190929190505050611456565b005b3480156105d357600080fd5b506105f26004803603810190808035906020019092919050505061147a565b604051808215151515815260200191505060405180910390f35b34801561061857600080fd5b5061064d600480360381019080803573ffffffffffffffffffffffffffffffffffffffff1690602001909291905050506114d0565b6040518080602001828103825283818151815260200191508051906020019060200280838360005b83811015610690578082015181840152602081019050610675565b505050509050019250505060405180910390f35b3480156106b057600080fd5b506106cf60048036038101908080359060200190929190505050611567565b604051808273ffffffffffffffffffffffffffffffffffffffff1673ffffffffffffffffffffffffffffffffffffffff16815260200191505060405180910390f35b34801561071d57600080fd5b5061073c600480360381019080803590602001909291905050506115a4565b6040518080602001828103825283818151815260200191508051906020019080838360005b8381101561077c578082015181840152602081019050610761565b50505050905090810190601f1680156107a95780820380516001836020036101000a031916815260200191505b509250505060405180910390f35b3480156107c357600080fd5b506107ec6004803603810190808035906020019092919080359060200190929190505050611659565b005b3480156107fa57600080fd5b5061082f600480360381019080803573ffffffffffffffffffffffffffffffffffffffff16906020019092919050505061181f565b6040518082815260200191505060405180910390f35b34801561085157600080fd5b506108ac600480360381019080803590602001908201803590602001908080601f016020809104026020016040519081016040528093929190818152602001838380828437820191505050505050919291929050505061186b565b604051808215151515815260200191505060405180910390f35b3480156108d257600080fd5b506108db61191b565b6040518080602001828103825283818151815260200191508051906020019080838360005b8381101561091b578082015181840152602081019050610900565b50505050905090810190601f1680156109485780820380516001836020036101000a031916815260200191505b509250505060405180910390f35b34801561096257600080fd5b5061096b6119bd565b604051808273ffffffffffffffffffffffffffffffffffffffff1673ffffffffffffffffffffffffffffffffffffffff16815260200191505060405180910390f35b3480156109b957600080fd5b506109d8600480360381019080803590602001909291905050506119e2565b005b3480156109e657600080fd5b506109ef611a47565b6040518080602001828103825283818151815260200191508051906020019080838360005b83811015610a2f578082015181840152602081019050610a14565b50505050905090810190601f168015610a5c5780820380516001836020036101000a031916815260200191505b509250505060405180910390f35b348015610a7657600080fd5b50610a7f611ae9565b6040518082815260200191505060405180910390f35b348015610aa157600080fd5b50610ae2600480360381019080803573ffffffffffffffffffffffffffffffffffffffff169060200190929190803515159060200190929190505050611aef565b005b348015610af057600080fd5b50610b95600480360381019080803573ffffffffffffffffffffffffffffffffffffffff169060200190929190803573ffffffffffffffffffffffffffffffffffffffff16906020019092919080359060200190929190803590602001908201803590602001908080601f0160208091040260200160405190810160405280939291908181526020018383808284378201915050505050509192919290505050611ba7565b005b348015610ba357600080fd5b50610bac611bbc565b604051808273ffffffffffffffffffffffffffffffffffffffff1673ffffffffffffffffffffffffffffffffffffffff16815260200191505060405180910390f35b348015610bfa57600080fd5b50610c4f600480360381019080803573ffffffffffffffffffffffffffffffffffffffff169060200190929190803573ffffffffffffffffffffffffffffffffffffffff169060200190929190505050611be2565b604051808215151515815260200191505060405180910390f35b348015610c7557600080fd5b50610c9460048036038101908080359060200190929190505050611c76565b604051808273ffffffffffffffffffffffffffffffffffffffff1673ffffffffffffffffffffffffffffffffffffffff16815260200191505060405180910390f35b348015610ce257600080fd5b50610d17600480360381019080803573ffffffffffffffffffffffffffffffffffffffff169060200190929190505050611cb3565b005b610d73600480360381019080803590602001908201803590602001908080601f0160208091040260200160405190810160405280939291908181526020018383808284378201915050505050509192919290505050611d51565b005b600063ffffffff7c010000000000000000000000000000000000000000000000000000000002827bffffffffffffffffffffffffffffffffffffffffffffffffffffffff19161415610dca5760009050610e5e565b6301ffc9a77c010000000000000000000000000000000000000000000000000000000002827bffffffffffffffffffffffffffffffffffffffffffffffffffffffff19161480610e5b5750637c0633c67c010000000000000000000000000000000000000000000000000000000002827bffffffffffffffffffffffffffffffffffffffffffffffffffffffff1916145b90505b919050565b606060018054600181600116156101000203166002900480601f016020809104026020016040519081016040528092919081815260200182805460018160011615610100020316600290048015610efb5780601f10610ed057610100808354040283529160200191610efb565b820191906000526020600020905b815481529060010190602001808311610ede57829003601f168201915b5050505050905090565b6000610f1082611567565b90508073ffffffffffffffffffffffffffffffffffffffff168373ffffffffffffffffffffffffffffffffffffffff1614151515610f4d57600080fd5b8273ffffffffffffffffffffffffffffffffffffffff16610f6d83611c76565b73ffffffffffffffffffffffffffffffffffffffff161415156110385782600a600084815260200190815260200160002060006101000a81548173ffffffffffffffffffffffffffffffffffffffff021916908373ffffffffffffffffffffffffffffffffffffffff160217905550818373ffffffffffffffffffffffffffffffffffffffff168273ffffffffffffffffffffffffffffffffffffffff167f8c5be1e5ebec7d5bd14f71427d1e84f3dd0314c0f7b2291e5b200ac8c7c3b92560405160405180910390a45b505050565b6000809054906101000a900473ffffffffffffffffffffffffffffffffffffffff1673ffffffffffffffffffffffffffffffffffffffff163373ffffffffffffffffffffffffffffffffffffffff1614151561109857600080fd5b6000600d60009054906101000a900473ffffffffffffffffffffffffffffffffffffffff1673ffffffffffffffffffffffffffffffffffffffff161415156110df57600080fd5b80600d60006101000a81548173ffffffffffffffffffffffffffffffffffffffff021916908373ffffffffffffffffffffffffffffffffffffffff16021790555050565b6000600454905090565b61114c8383836020604051908101604052806000815250336000611f16565b505050565b60008060008473ffffffffffffffffffffffffffffffffffffffff161415151561117a57600080fd5b61118383611567565b90508073ffffffffffffffffffffffffffffffffffffffff168473ffffffffffffffffffffffffffffffffffffffff1614156111c2576001915061120d565b6111cc8482611be2565b8061120a57508373ffffffffffffffffffffffffffffffffffffffff166111f284611c76565b73ffffffffffffffffffffffffffffffffffffffff16145b91505b5092915050565b6000600560008473ffffffffffffffffffffffffffffffffffffffff1673ffffffffffffffffffffffffffffffffffffffff168152602001908152602001600020805490508210151561126657600080fd5b6f800000000000000000000000000000008210151561128457600080fd5b600560008473ffffffffffffffffffffffffffffffffffffffff1673ffffffffffffffffffffffffffffffffffffffff168152602001908152602001600020828154811015156112d057fe5b9060005260206000200154905092915050565b600080905090565b6000809054906101000a900473ffffffffffffffffffffffffffffffffffffffff1673ffffffffffffffffffffffffffffffffffffffff163373ffffffffffffffffffffffffffffffffffffffff1614151561134657600080fd5b3373ffffffffffffffffffffffffffffffffffffffff166108fc3073ffffffffffffffffffffffffffffffffffffffff16319081150290604051600060405180830381858888f193505050501580156113a3573d6000803e3d6000fd5b50565b600b6020528060005260406000206000915090508054600181600116156101000203166002900480601f01602080910402602001604051908101604052809291908181526020018280546001816001161561010002031660029004801561144e5780601f106114235761010080835404028352916020019161144e565b820191906000526020600020905b81548152906001019060200180831161143157829003601f168201915b505050505081565b6114758383836020604051908101604052806000815250336001611f16565b505050565b6000806006600084815260200190815260200160002060009054906101000a900473ffffffffffffffffffffffffffffffffffffffff1673ffffffffffffffffffffffffffffffffffffffff1614159050919050565b6060600560008373ffffffffffffffffffffffffffffffffffffffff1673ffffffffffffffffffffffffffffffffffffffff16815260200190815260200160002080548060200260200160405190810160405280929190818152602001828054801561155b57602002820191906000526020600020905b815481526020019060010190808311611547575b50505050509050919050565b60006006600083815260200190815260200160002060009054906101000a900473ffffffffffffffffffffffffffffffffffffffff169050919050565b6060600860008381526020019081526020016000208054600181600116156101000203166002900480601f01602080910402602001604051908101604052809291908181526020018280546001816001161561010002031660029004801561164d5780601f106116225761010080835404028352916020019161164d565b820191906000526020600020905b81548152906001019060200180831161163057829003601f168201915b50505050509050919050565b3073ffffffffffffffffffffffffffffffffffffffff1663095ea7b3600d60009054906101000a900473ffffffffffffffffffffffffffffffffffffffff16846040518363ffffffff167c0100000000000000000000000000000000000000000000000000000000028152600401808373ffffffffffffffffffffffffffffffffffffffff1673ffffffffffffffffffffffffffffffffffffffff16815260200182815260200192505050600060405180830381600087803b15801561171e57600080fd5b505af1158015611732573d6000803e3d6000fd5b50505050600d60009054906101000a900473ffffffffffffffffffffffffffffffffffffffff1673ffffffffffffffffffffffffffffffffffffffff16636a2724623384846040518463ffffffff167c0100000000000000000000000000000000000000000000000000000000028152600401808473ffffffffffffffffffffffffffffffffffffffff1673ffffffffffffffffffffffffffffffffffffffff1681526020018381526020018281526020019350505050600060405180830381600087803b15801561180357600080fd5b505af1158015611817573d6000803e3d6000fd5b505050505050565b6000600560008373ffffffffffffffffffffffffffffffffffffffff1673ffffffffffffffffffffffffffffffffffffffff168152602001908152602001600020805490509050919050565b600080826040518082805190602001908083835b6020831015156118a4578051825260208201915060208101905060208303925061187f565b6001836020036101000a03801982511681845116808217855250505050505090500191505060405180910390206001900490506000600b600083815260200190815260200160002080546001816001161561010002031660029004905014156119105760019150611915565b600091505b50919050565b606060038054600181600116156101000203166002900480601f0160208091040260200160405190810160405280929190818152602001828054600181600116156101000203166002900480156119b35780601f10611988576101008083540402835291602001916119b3565b820191906000526020600020905b81548152906001019060200180831161199657829003601f168201915b5050505050905090565b6000809054906101000a900473ffffffffffffffffffffffffffffffffffffffff1681565b6000809054906101000a900473ffffffffffffffffffffffffffffffffffffffff1673ffffffffffffffffffffffffffffffffffffffff163373ffffffffffffffffffffffffffffffffffffffff16141515611a3d57600080fd5b80600c8190555050565b606060028054600181600116156101000203166002900480601f016020809104026020016040519081016040528092919081815260200182805460018160011615610100020316600290048015611adf5780601f10611ab457610100808354040283529160200191611adf565b820191906000526020600020905b815481529060010190602001808311611ac257829003601f168201915b5050505050905090565b600c5481565b8015611b1a57611aff8233611be2565b151515611b0b57600080fd5b611b15823361236c565b611b3a565b611b248233611be2565b1515611b2f57600080fd5b611b398233612405565b5b3373ffffffffffffffffffffffffffffffffffffffff168273ffffffffffffffffffffffffffffffffffffffff167f17307eab39ab6107e8899845ad3d59bd9653f200f220920489ca2b5937696c3183604051808215151515815260200191505060405180910390a35050565b611bb684848484336001611f16565b50505050565b600d60009054906101000a900473ffffffffffffffffffffffffffffffffffffffff1681565b6000600960008373ffffffffffffffffffffffffffffffffffffffff1673ffffffffffffffffffffffffffffffffffffffff16815260200190815260200160002060008473ffffffffffffffffffffffffffffffffffffffff1673ffffffffffffffffffffffffffffffffffffffff16815260200190815260200160002060009054906101000a900460ff16905092915050565b6000600a600083815260200190815260200160002060009054906101000a900473ffffffffffffffffffffffffffffffffffffffff169050919050565b6000809054906101000a900473ffffffffffffffffffffffffffffffffffffffff1673ffffffffffffffffffffffffffffffffffffffff163373ffffffffffffffffffffffffffffffffffffffff16141515611d0e57600080fd5b806000806101000a81548173ffffffffffffffffffffffffffffffffffffffff021916908373ffffffffffffffffffffffffffffffffffffffff16021790555050565b6000600c543410151515611d6457600080fd5b816040518082805190602001908083835b602083101515611d9a5780518252602082019150602081019050602083039250611d75565b6001836020036101000a03801982511681845116808217855250505050505090500191505060405180910390206001900490506000600b60008381526020019081526020016000208054600181600116156101000203166002900490501415611f1257611e07813361249e565b81600b60008381526020019081526020016000209080519060200190611e2e929190612b16565b50611e398183612595565b7f9d2f14df77ba038ff6f9ba99bbdcfbc30f1650b9574e3b7bbae993df15a92f30338383604051808473ffffffffffffffffffffffffffffffffffffffff1673ffffffffffffffffffffffffffffffffffffffff16815260200180602001838152602001828103825284818151815260200191508051906020019080838360005b83811015611ed5578082015181840152602081019050611eba565b50505050905090810190601f168015611f025780820380516001836020036101000a031916815260200191505b5094505050505060405180910390a15b5050565b6000808660008173ffffffffffffffffffffffffffffffffffffffff1614151515611f4057600080fd5b86888073ffffffffffffffffffffffffffffffffffffffff166006600084815260200190815260200160002060009054906101000a900473ffffffffffffffffffffffffffffffffffffffff1673ffffffffffffffffffffffffffffffffffffffff1614151515611fb057600080fd5b8a898173ffffffffffffffffffffffffffffffffffffffff166006600083815260200190815260200160002060009054906101000a900473ffffffffffffffffffffffffffffffffffffffff1673ffffffffffffffffffffffffffffffffffffffff1614151561201f57600080fd5b8a61202a3382611151565b151561203557600080fd5b600660008d815260200190815260200160002060009054906101000a900473ffffffffffffffffffffffffffffffffffffffff169750612075888d6125c1565b61207f888d61289b565b6120898d8d6129cb565b88801561209b575061209a8d612acc565b5b1561225d5763f0b9e5ba7c0100000000000000000000000000000000000000000000000000000000029650867bffffffffffffffffffffffffffffffffffffffffffffffffffffffff19168d73ffffffffffffffffffffffffffffffffffffffff16635254a38c8e8b8f6040518463ffffffff167c0100000000000000000000000000000000000000000000000000000000028152600401808481526020018373ffffffffffffffffffffffffffffffffffffffff1673ffffffffffffffffffffffffffffffffffffffff16815260200180602001828103825283818151815260200191508051906020019080838360005b838110156121a857808201518184015260208101905061218d565b50505050905090810190601f1680156121d55780820380516001836020036101000a031916815260200191505b50945050505050602060405180830381600087803b1580156121f657600080fd5b505af115801561220a573d6000803e3d6000fd5b505050506040513d602081101561222057600080fd5b81019080805190602001909291905050507bffffffffffffffffffffffffffffffffffffffffffffffffffffffff191614151561225c57600080fd5b5b8b8d73ffffffffffffffffffffffffffffffffffffffff168973ffffffffffffffffffffffffffffffffffffffff167fd5c97f2e041b2046be3b4337472f05720760a198f4d7d84980b7155eec7cca6f8d8f604051808373ffffffffffffffffffffffffffffffffffffffff1673ffffffffffffffffffffffffffffffffffffffff16815260200180602001828103825283818151815260200191508051906020019080838360005b83811015612321578082015181840152602081019050612306565b50505050905090810190601f16801561234e5780820380516001836020036101000a031916815260200191505b50935050505060405180910390a45050505050505050505050505050565b6001600960008373ffffffffffffffffffffffffffffffffffffffff1673ffffffffffffffffffffffffffffffffffffffff16815260200190815260200160002060008473ffffffffffffffffffffffffffffffffffffffff1673ffffffffffffffffffffffffffffffffffffffff16815260200190815260200160002060006101000a81548160ff0219169083151502179055505050565b6000600960008373ffffffffffffffffffffffffffffffffffffffff1673ffffffffffffffffffffffffffffffffffffffff16815260200190815260200160002060008473ffffffffffffffffffffffffffffffffffffffff1673ffffffffffffffffffffffffffffffffffffffff16815260200190815260200160002060006101000a81548160ff0219169083151502179055505050565b60006006600084815260200190815260200160002060009054906101000a900473ffffffffffffffffffffffffffffffffffffffff1673ffffffffffffffffffffffffffffffffffffffff161415156124f657600080fd5b61250081836129cb565b818173ffffffffffffffffffffffffffffffffffffffff1660007fd5c97f2e041b2046be3b4337472f05720760a198f4d7d84980b7155eec7cca6f33604051808273ffffffffffffffffffffffffffffffffffffffff1673ffffffffffffffffffffffffffffffffffffffff168152602001806020018281038252600081526020016020019250505060405180910390a45050565b806008600084815260200190815260200160002090805190602001906125bc929190612b16565b505050565b6000806000600760008581526020019081526020016000205492506125f860016125ea8761181f565b612adf90919063ffffffff16565b9150600560008673ffffffffffffffffffffffffffffffffffffffff1673ffffffffffffffffffffffffffffffffffffffff1681526020019081526020016000208281548110151561264657fe5b9060005260206000200154905060006006600086815260200190815260200160002060006101000a81548173ffffffffffffffffffffffffffffffffffffffff021916908373ffffffffffffffffffffffffffffffffffffffff16021790555080600560008773ffffffffffffffffffffffffffffffffffffffff1673ffffffffffffffffffffffffffffffffffffffff168152602001908152602001600020848154811015156126f357fe5b90600052602060002001819055506000600560008773ffffffffffffffffffffffffffffffffffffffff1673ffffffffffffffffffffffffffffffffffffffff1681526020019081526020016000208381548110151561274f57fe5b9060005260206000200181905550600560008673ffffffffffffffffffffffffffffffffffffffff1673ffffffffffffffffffffffffffffffffffffffff1681526020019081526020016000208054809190600190036127af9190612b96565b506000600560008773ffffffffffffffffffffffffffffffffffffffff1673ffffffffffffffffffffffffffffffffffffffff16815260200190815260200160002080549050141561284757600560008673ffffffffffffffffffffffffffffffffffffffff1673ffffffffffffffffffffffffffffffffffffffff16815260200190815260200160002060006128469190612bc2565b5b6000600760008681526020019081526020016000208190555082600760008381526020019081526020016000208190555061288e6001600454612adf90919063ffffffff16565b6004819055505050505050565b8173ffffffffffffffffffffffffffffffffffffffff166128bb82611567565b73ffffffffffffffffffffffffffffffffffffffff1614801561292857506000600a600083815260200190815260200160002060009054906101000a900473ffffffffffffffffffffffffffffffffffffffff1673ffffffffffffffffffffffffffffffffffffffff1614155b156129c7576000600a600083815260200190815260200160002060006101000a81548173ffffffffffffffffffffffffffffffffffffffff021916908373ffffffffffffffffffffffffffffffffffffffff1602179055508060008373ffffffffffffffffffffffffffffffffffffffff167f8c5be1e5ebec7d5bd14f71427d1e84f3dd0314c0f7b2291e5b200ac8c7c3b92560405160405180910390a45b5050565b6000826006600084815260200190815260200160002060006101000a81548173ffffffffffffffffffffffffffffffffffffffff021916908373ffffffffffffffffffffffffffffffffffffffff160217905550612a288361181f565b9050600560008473ffffffffffffffffffffffffffffffffffffffff1673ffffffffffffffffffffffffffffffffffffffff168152602001908152602001600020829080600181540180825580915050906001820390600052602060002001600090919290919091505550806007600084815260200190815260200160002081905550612ac16001600454612af890919063ffffffff16565b600481905550505050565b600080823b905060008111915050919050565b6000828211151515612aed57fe5b818303905092915050565b6000808284019050838110151515612b0c57fe5b8091505092915050565b828054600181600116156101000203166002900490600052602060002090601f016020900481019282601f10612b5757805160ff1916838001178555612b85565b82800160010185558215612b85579182015b82811115612b84578251825591602001919060010190612b69565b5b509050612b929190612be3565b5090565b815481835581811115612bbd57818360005260206000209182019101612bbc9190612be3565b5b505050565b5080546000825590600052602060002090810190612be09190612be3565b50565b612c0591905b80821115612c01576000816000905550600101612be9565b5090565b905600a165627a7a723058208101585bba277bb6a14e66451ab01fa17c328d049be02dccdf535342783f4d710029",
  "source": "pragma solidity ^0.4.17;\n\nimport 'erc821/contracts/FullAssetRegistry.sol';\nimport './Owned.sol';\nimport './Marketplace.sol';\n\ncontract TimewalkLand is Owned, FullAssetRegistry {\n\n  event Claimed(address _claimer, string _placeData, uint _assetId);\n\n  constructor() public {\n    _name = \"TimewalkLand\";\n    _symbol = \"TWL\";\n    _description = \"Timewalk Land Tokens\";\n  }\n\n  // map assetId to placeId\n  mapping(uint256 => string) public placeIdLookup;\n\n  // expressed in wei\n  uint256 public price;\n\n  Marketplace public marketplaceContract;\n\n  // _newPrice is expressed in wei\n  function setPrice(uint256 _newPrice) onlyOwner public {\n    price = _newPrice;\n  }\n\n  function claim(string _placeData) payable public {\n    require(msg.value >= price);\n\n    uint256 assetId = uint256(keccak256(_placeData));\n\n    if (bytes(placeIdLookup[assetId]).length == 0) {\n      _generate(assetId, msg.sender);\n\n      placeIdLookup[assetId] = _placeData;\n\n      _update(assetId, _placeData);\n\n      emit Claimed(msg.sender, _placeData, assetId);\n    }\n  }\n\n  function placeAvailable(string _placeData) public view returns(bool) {\n    uint256 assetId = uint256(keccak256(_placeData));\n\n    if (bytes(placeIdLookup[assetId]).length == 0) {\n      return true;\n    } else {\n      return false;\n    }\n  }\n\n  function approveAndSell(uint _assetId, uint _amount) public {\n    this.approve(address(marketplaceContract), _assetId);\n\n    marketplaceContract.sell(msg.sender, _assetId, _amount);\n  }\n\n  function withdraw() onlyOwner public {\n    msg.sender.transfer(address(this).balance);\n  }\n\n  function setMarketplaceContract(address _marketplace) public onlyOwner {\n    require(address(marketplaceContract) == 0x0);\n\n    marketplaceContract = Marketplace(_marketplace);\n  }\n\n}\n",
  "sourcePath": "/Users/michaelreinstein/wwwroot/land.timewalk.org/contracts/TimewalkLand.sol",
  "compiler": {
    "name": "solc",
    "version": "0.4.23+commit.124ca40d.Emscripten.clang"
  },
  "schemaVersion": "2.0.0",
  "updatedAt": "2018-04-30T18:47:05.899Z"
}